{
  "_format": "hh-sol-artifact-1",
  "contractName": "PriceOracle",
  "sourceName": "contracts/PriceOracle.sol",
  "abi": [
    {
      "inputs": [
        {
          "internalType": "uint256",
          "name": "initialOnePrice",
          "type": "uint256"
        }
      ],
      "stateMutability": "nonpayable",
      "type": "constructor"
    },
    {
      "inputs": [
        {
          "internalType": "uint256",
          "name": "price",
          "type": "uint256"
        }
      ],
      "name": "InvalidPrice",
      "type": "error"
    },
    {
      "inputs": [
        {
          "internalType": "uint256",
          "name": "lastUpdate",
          "type": "uint256"
        },
        {
          "internalType": "uint256",
          "name": "maxAge",
          "type": "uint256"
        }
      ],
      "name": "StalePrice",
      "type": "error"
    },
    {
      "inputs": [
        {
          "internalType": "address",
          "name": "token",
          "type": "address"
        }
      ],
      "name": "TokenNotSupported",
      "type": "error"
    },
    {
      "inputs": [],
      "name": "ZeroAddress",
      "type": "error"
    },
    {
      "inputs": [],
      "name": "ZeroAmount",
      "type": "error"
    },
    {
      "anonymous": false,
      "inputs": [
        {
          "indexed": true,
          "internalType": "address",
          "name": "token",
          "type": "address"
        },
        {
          "indexed": false,
          "internalType": "uint8",
          "name": "source",
          "type": "uint8"
        },
        {
          "indexed": false,
          "internalType": "address",
          "name": "adapter",
          "type": "address"
        },
        {
          "indexed": false,
          "internalType": "string",
          "name": "base",
          "type": "string"
        },
        {
          "indexed": false,
          "internalType": "string",
          "name": "quote",
          "type": "string"
        }
      ],
      "name": "FeedConfigured",
      "type": "event"
    },
    {
      "anonymous": false,
      "inputs": [
        {
          "indexed": true,
          "internalType": "address",
          "name": "previousOwner",
          "type": "address"
        },
        {
          "indexed": true,
          "internalType": "address",
          "name": "newOwner",
          "type": "address"
        }
      ],
      "name": "OwnershipTransferred",
      "type": "event"
    },
    {
      "anonymous": false,
      "inputs": [
        {
          "indexed": true,
          "internalType": "address",
          "name": "token",
          "type": "address"
        },
        {
          "indexed": false,
          "internalType": "uint256",
          "name": "price",
          "type": "uint256"
        },
        {
          "indexed": false,
          "internalType": "uint256",
          "name": "timestamp",
          "type": "uint256"
        }
      ],
      "name": "PriceUpdated",
      "type": "event"
    },
    {
      "anonymous": false,
      "inputs": [
        {
          "indexed": true,
          "internalType": "address",
          "name": "token",
          "type": "address"
        },
        {
          "indexed": false,
          "internalType": "bool",
          "name": "supported",
          "type": "bool"
        }
      ],
      "name": "TokenSupportUpdated",
      "type": "event"
    },
    {
      "inputs": [],
      "name": "NATIVE_ONE",
      "outputs": [
        {
          "internalType": "address",
          "name": "",
          "type": "address"
        }
      ],
      "stateMutability": "view",
      "type": "function"
    },
    {
      "inputs": [
        {
          "internalType": "address",
          "name": "token",
          "type": "address"
        },
        {
          "internalType": "uint8",
          "name": "decimals",
          "type": "uint8"
        },
        {
          "internalType": "uint256",
          "name": "initialPrice",
          "type": "uint256"
        }
      ],
      "name": "addToken",
      "outputs": [],
      "stateMutability": "nonpayable",
      "type": "function"
    },
    {
      "inputs": [
        {
          "internalType": "address",
          "name": "token",
          "type": "address"
        }
      ],
      "name": "clearFeed",
      "outputs": [],
      "stateMutability": "nonpayable",
      "type": "function"
    },
    {
      "inputs": [
        {
          "internalType": "address",
          "name": "token",
          "type": "address"
        },
        {
          "internalType": "uint256",
          "name": "usdAmount",
          "type": "uint256"
        }
      ],
      "name": "convertFromUSD",
      "outputs": [
        {
          "internalType": "uint256",
          "name": "tokenAmount",
          "type": "uint256"
        }
      ],
      "stateMutability": "view",
      "type": "function"
    },
    {
      "inputs": [
        {
          "internalType": "address",
          "name": "token",
          "type": "address"
        },
        {
          "internalType": "uint256",
          "name": "amount",
          "type": "uint256"
        }
      ],
      "name": "convertToUSD",
      "outputs": [
        {
          "internalType": "uint256",
          "name": "usdValue",
          "type": "uint256"
        }
      ],
      "stateMutability": "view",
      "type": "function"
    },
    {
      "inputs": [
        {
          "internalType": "address",
          "name": "",
          "type": "address"
        }
      ],
      "name": "feedConfig",
      "outputs": [
        {
          "internalType": "enum PriceOracle.PriceSource",
          "name": "source",
          "type": "uint8"
        },
        {
          "internalType": "address",
          "name": "adapter",
          "type": "address"
        },
        {
          "internalType": "string",
          "name": "base",
          "type": "string"
        },
        {
          "internalType": "string",
          "name": "quote",
          "type": "string"
        }
      ],
      "stateMutability": "view",
      "type": "function"
    },
    {
      "inputs": [],
      "name": "getSupportedTokens",
      "outputs": [
        {
          "internalType": "address[]",
          "name": "tokens",
          "type": "address[]"
        }
      ],
      "stateMutability": "view",
      "type": "function"
    },
    {
      "inputs": [
        {
          "internalType": "address",
          "name": "token",
          "type": "address"
        }
      ],
      "name": "getTokenData",
      "outputs": [
        {
          "components": [
            {
              "internalType": "uint256",
              "name": "price",
              "type": "uint256"
            },
            {
              "internalType": "uint256",
              "name": "lastUpdate",
              "type": "uint256"
            },
            {
              "internalType": "uint8",
              "name": "decimals",
              "type": "uint8"
            },
            {
              "internalType": "bool",
              "name": "supported",
              "type": "bool"
            }
          ],
          "internalType": "struct PriceOracle.PriceData",
          "name": "data",
          "type": "tuple"
        }
      ],
      "stateMutability": "view",
      "type": "function"
    },
    {
      "inputs": [
        {
          "internalType": "address",
          "name": "token",
          "type": "address"
        }
      ],
      "name": "getUSDPrice",
      "outputs": [
        {
          "internalType": "uint256",
          "name": "price",
          "type": "uint256"
        }
      ],
      "stateMutability": "view",
      "type": "function"
    },
    {
      "inputs": [
        {
          "internalType": "address",
          "name": "token",
          "type": "address"
        }
      ],
      "name": "isPriceValid",
      "outputs": [
        {
          "internalType": "bool",
          "name": "isValid",
          "type": "bool"
        }
      ],
      "stateMutability": "view",
      "type": "function"
    },
    {
      "inputs": [],
      "name": "maxPriceAge",
      "outputs": [
        {
          "internalType": "uint256",
          "name": "",
          "type": "uint256"
        }
      ],
      "stateMutability": "view",
      "type": "function"
    },
    {
      "inputs": [],
      "name": "owner",
      "outputs": [
        {
          "internalType": "address",
          "name": "",
          "type": "address"
        }
      ],
      "stateMutability": "view",
      "type": "function"
    },
    {
      "inputs": [
        {
          "internalType": "address",
          "name": "",
          "type": "address"
        }
      ],
      "name": "priceData",
      "outputs": [
        {
          "internalType": "uint256",
          "name": "price",
          "type": "uint256"
        },
        {
          "internalType": "uint256",
          "name": "lastUpdate",
          "type": "uint256"
        },
        {
          "internalType": "uint8",
          "name": "decimals",
          "type": "uint8"
        },
        {
          "internalType": "bool",
          "name": "supported",
          "type": "bool"
        }
      ],
      "stateMutability": "view",
      "type": "function"
    },
    {
      "inputs": [
        {
          "internalType": "address",
          "name": "token",
          "type": "address"
        }
      ],
      "name": "removeToken",
      "outputs": [],
      "stateMutability": "nonpayable",
      "type": "function"
    },
    {
      "inputs": [],
      "name": "renounceOwnership",
      "outputs": [],
      "stateMutability": "nonpayable",
      "type": "function"
    },
    {
      "inputs": [
        {
          "internalType": "address",
          "name": "token",
          "type": "address"
        },
        {
          "internalType": "address",
          "name": "stdRef",
          "type": "address"
        },
        {
          "internalType": "string",
          "name": "base",
          "type": "string"
        },
        {
          "internalType": "string",
          "name": "quote",
          "type": "string"
        }
      ],
      "name": "setBandFeed",
      "outputs": [],
      "stateMutability": "nonpayable",
      "type": "function"
    },
    {
      "inputs": [
        {
          "internalType": "uint256",
          "name": "newMaxAge",
          "type": "uint256"
        }
      ],
      "name": "setMaxPriceAge",
      "outputs": [],
      "stateMutability": "nonpayable",
      "type": "function"
    },
    {
      "inputs": [
        {
          "internalType": "uint256",
          "name": "",
          "type": "uint256"
        }
      ],
      "name": "supportedTokens",
      "outputs": [
        {
          "internalType": "address",
          "name": "",
          "type": "address"
        }
      ],
      "stateMutability": "view",
      "type": "function"
    },
    {
      "inputs": [
        {
          "internalType": "address",
          "name": "newOwner",
          "type": "address"
        }
      ],
      "name": "transferOwnership",
      "outputs": [],
      "stateMutability": "nonpayable",
      "type": "function"
    },
    {
      "inputs": [
        {
          "internalType": "address",
          "name": "token",
          "type": "address"
        },
        {
          "internalType": "uint256",
          "name": "newPrice",
          "type": "uint256"
        }
      ],
      "name": "updatePrice",
      "outputs": [],
      "stateMutability": "nonpayable",
      "type": "function"
    },
    {
      "inputs": [
        {
          "internalType": "address[]",
          "name": "tokens",
          "type": "address[]"
        },
        {
          "internalType": "uint256[]",
          "name": "prices",
          "type": "uint256[]"
        }
      ],
      "name": "updatePrices",
      "outputs": [],
      "stateMutability": "nonpayable",
      "type": "function"
    }
  ],
  "bytecode": "0x608034620001f757601f6200233d38819003918201601f19168301926001600160401b039290919083851183861017620001fc5780839260409687528339602092839181010312620001f75751600080546001600160a01b03198082163390811784558751939693949391926001600160a01b03167f8be0079c531659141344cd1fd0a4f28419497f9722a3daafe3b4186f6b6457e08880a3600193848055610e106005558315620001e157508651906080820190811182821017620001cd57875282815284810142815260ff6002898401936012855260608101938885528a8052828a528b8b209151825551888201550192511661ff0083549251151560081b169161ffff19161717905560045468010000000000000000811015620001b95783810180600455811015620001a557867fbbe72b7d9dcb594ee398a4a617885aba53d833e2aad601c813ce9df99fdeb49b95949387937fb556fac599c3c70efb9ab1fa725ecace6c81cc48d1455f886607def065f3e0c093600486528786200190815416905581519081524286820152a28451908152a25161212a9081620002138239f35b634e487b7160e01b86526032600452602486fd5b634e487b7160e01b86526041600452602486fd5b634e487b7160e01b87526041600452602487fd5b637cb1974360e11b815260048101849052602490fd5b600080fd5b634e487b7160e01b600052604160045260246000fdfe6080604052600436101561001257600080fd5b60003560e01c8063082b77331461197b57806313ff7e9f146118cf5780631584410a146118b1578063305b425f146118955780633a3d1f9814611508578063457972de1461145757806356447ce8146113f95780635fa7b58414611248578063715018a6146111ef5780637bbf98ce1461115a5780638b2f0f4f14610f9d5780638ba4e33d14610f705780638da5cb5b14610f4757806396f7706014610d69578063c625562614610d27578063cab44b7614610cc6578063d3c7c2c714610bfe578063d5c746d214610a05578063f08a25ed14610648578063f2fde38b1461057f5763fddc52f41461010357600080fd5b3461057a57608036600319011261057a5761011c611a3c565b602435906001600160a01b03808316830361057a5760443567ffffffffffffffff811161057a57610151903690600401611c2e565b93909260643567ffffffffffffffff811161057a57610174903690600401611c2e565b909461017e611c5c565b848316600052600260205260ff60026040600020015460081c1615610560578484161561054e5786151580610545575b1561051157604051966101c088611a8c565b60018852602088019786861689526101d9368385611f23565b604082019081526101eb36868b611f23565b6060830152878616600052600360205260406000209982519060028210156104fb5760ff8c5491610100600160a81b03905160081b169216906affffffffffffffffffffff60a81b1617178a555180519067ffffffffffffffff82116104325761025860018c0154611a52565b601f81116104c6575b50602090601f831160011461045357606093929160009183610448575b50508160011b916000199060031b1c19161760018b01555b01519788519067ffffffffffffffff821161043257600201906102b98254611a52565b601f81116103f5575b506020601f821160011461036057926103409282610350989796938b967f7313ebacf8bc6476f7f0aa79bbe9458b17342a40016e78f03d662a579a00519d9d9e600092610355575b50508160011b916000199060031b1c19161790555b60405198899860018a52166020890152608060408901526080880191611f81565b9285840360608701521696611f81565b0390a2005b01519050388061030a565b601f1982169a8360005260206000209b60005b8181106103dd5750837f7313ebacf8bc6476f7f0aa79bbe9458b17342a40016e78f03d662a579a00519d9c9d8c979461034097946103509c9b9a97600195106103c4575b505050811b01905561031f565b015160001960f88460031b161c191690553880806103b7565b838301518e556001909d019c60209384019301610373565b61042290836000526020600020601f840160051c81019160208510610428575b601f0160051c0190611f6a565b386102c2565b9091508190610415565b634e487b7160e01b600052604160045260246000fd5b01519050388061027e565b9060018c0160005260206000209160005b601f19851681106104ae575091839160019360609695601f19811610610495575b505050811b0160018b0155610296565b015160001960f88460031b161c19169055388080610485565b91926020600181928685015181550194019201610464565b6104f59060018d016000526020600020601f850160051c8101916020861061042857601f0160051c0190611f6a565b38610261565b634e487b7160e01b600052602160045260246000fd5b60405162461bcd60e51b815260206004820152600c60248201526b24b73b30b634b2103830b4b960a11b6044820152606490fd5b508115156101ae565b60405163d92e233d60e01b8152600490fd5b6040516306439c6b60e01b81528584166004820152602490fd5b600080fd5b3461057a57602036600319011261057a57610598611a3c565b6105a0611c5c565b6001600160a01b039081169081156105f457600054826bffffffffffffffffffffffff60a01b821617600055167f8be0079c531659141344cd1fd0a4f28419497f9722a3daafe3b4186f6b6457e0600080a3005b60405162461bcd60e51b815260206004820152602660248201527f4f776e61626c653a206e6577206f776e657220697320746865207a65726f206160448201526564647265737360d01b6064820152608490fd5b3461057a57604036600319011261057a57610661611a3c565b602490813560018060a01b03809216918260005260029260209484865260ff9283866040600020015460081c16156109ee57826000526003875260406000209586549685881697828910156109d957600198890361095e576106e3916060918a8660405180968195829463195556f360e21b84528a8201910160048401611d9b565b039260081c165afa9081156108e957600091610940575b5060408982015191015180821060001461093957505b61071a8142611cb4565b60055480911161091c5750505b851561090a5783600052808852604060002093816040519561074887611a8c565b80548752898101548b8801520154946060876040830197818116895260081c1615159101526000528088526040600020549660038952604060002092835492878416818110156108f557831461086a575b505050505082825116601281146000146107ce5750505050670de0b6b3a7640000916107c491611ebd565b045b604051908152f35b601281101561080f575050610809926107fe6107f9670de0b6b3a76400009694610804945116611e9b565b611eac565b90611ebd565b611ebd565b046107c6565b61082b935061082591969592506107f990611e88565b92611ebd565b670de0b6b3a76400009182810292818404149015171561085557610850929350611ed0565b6107c6565b83634e487b7160e01b60005260116004526000fd5b60405163195556f360e21b8152959950606094869493859392849261089792918101910160048401611d9b565b039260081c165afa9081156108e9576000916108bb575b5051938680808080610799565b6108dc915060603d81116108e2575b6108d48183611aa8565b810190611cc1565b866108ae565b503d6108ca565b6040513d6000823e3d90fd5b86634e487b7160e01b60005260216004526000fd5b604051631f2a200560e01b8152600490fd5b6044925084604051926304e61d6960e31b84526004840152820152fd5b9050610710565b610958915060603d81116108e2576108d48183611aa8565b896106fa565b50508360005280885260406000206109a88960405161097c81611a8c565b83548152606089868d870154948401968588520154818116604085015260081c16151591015242611cb4565b906005548092116109ba575050610727565b60449185915191604051926304e61d6960e31b84526004840152820152fd5b84634e487b7160e01b60005260216004526000fd5b5090604051906306439c6b60e01b82526004820152fd5b3461057a57606036600319011261057a57610a1e611a3c565b60243560ff811680910361057a5760443591610a38611c5c565b6001600160a01b038116928315610bc857836000526020926002845260ff60026040600020015460081c16610b83578115610b6a57604051610a7981611a8c565b82815260ff60028683019242845260408101948552606081019360018552896000528289526040600020915182555160018201550192511661ff0083549251151560081b169161ffff191617179055600454926801000000000000000084101561043257610b33604093610b148660017fb556fac599c3c70efb9ab1fa725ecace6c81cc48d1455f886607def065f3e0c09801600455611be1565b90919082549060031b9160018060a01b03809116831b921b1916179055565b847fbbe72b7d9dcb594ee398a4a617885aba53d833e2aad601c813ce9df99fdeb49b82855160018152a282519182524290820152a2005b604051637cb1974360e11b815260048101839052602490fd5b60405162461bcd60e51b815260048101859052601760248201527f546f6b656e20616c726561647920737570706f727465640000000000000000006044820152606490fd5b60405162461bcd60e51b815260206004820152600e60248201526d557365206e6174697665204f4e4560901b6044820152606490fd5b3461057a57600036600319011261057a57604051806004548083526020809301809160046000527f8a35acfbc15ff81a39ae7d344fd709f28e8600b4aa8c65c6b64bfe7fe36bd19b9060005b86828210610ca9578686610c6082880383611aa8565b604051928392818401908285525180915260408401929160005b828110610c8957505050500390f35b83516001600160a01b031685528695509381019392810192600101610c7a565b83546001600160a01b031685529093019260019283019201610c4a565b3461057a57602036600319011261057a576001600160a01b03610ce7611a3c565b1660005260026020526080604060002060ff81549160026001820154910154906040519384526020840152818116604084015260081c1615156060820152f35b3461057a57602036600319011261057a5760043560045481101561057a57610d50602091611be1565b905460405160039290921b1c6001600160a01b03168152f35b3461057a57604036600319011261057a5767ffffffffffffffff60043581811161057a57610d9b903690600401611bb0565b9091602490813590811161057a57610db7903690600401611bb0565b610dbf611c5c565b808403610f0a5760005b848110610dd257005b6001600160a01b0380610dee610de984898b611eff565b611f0f565b1660005260029060209180835260ff816040600020015460081c1615610ee457610e19848688611eff565b3515610ec1576040849392610e9d610de9868c8e7fb556fac599c3c70efb9ab1fa725ecace6c81cc48d1455f886607def065f3e0c097610e5e610ebc9c8f8f90611eff565b3587610e6e610de9878787611eff565b16600052818b52886000205586610e89610de9868686611eff565b166000528952426001886000200155611eff565b610ea886898b611eff565b3594835195865242908601521692a2611ef0565b610dc9565b50505090610ece92611eff565b604051637cb1974360e11b815290356004820152fd5b8682610ef4610de9878c8e611eff565b6040516306439c6b60e01b815291166004820152fd5b60405162461bcd60e51b81526020600482015260168185015275082e4e4c2f2e640d8cadccee8d040dad2e6dac2e8c6d60531b6044820152606490fd5b3461057a57600036600319011261057a576000546040516001600160a01b039091168152602090f35b3461057a57602036600319011261057a576020610f93610f8e611a3c565b611feb565b6040519015158152f35b3461057a5760208060031936011261057a57610fb7611a3c565b60018060a01b03808216908160005260029182855260ff836040600020015460081c161561114257806000526003855260406000209182549160ff8316858110156104fb576001036110bf575090600160609392611030956040519687958694859363195556f360e21b85528201910160048401611d9b565b039260081c165afa9081156108e9576000916110a1575b5060408382015191015180821060001461109a57505b6110678142611cb4565b60055480911161107c5750506107c690611dc3565b60449250604051916304e61d6960e31b835260048301526024820152fd5b905061105d565b6110b9915060603d81116108e2576108d48183611aa8565b83611047565b9250505060005280835261110c6040600020916040516110de81611a8c565b83548152606060ff600186015493888401968588520154818116604085015260081c16151591015242611cb4565b906005548092116111225750506107c690611dc3565b604492505190604051916304e61d6960e31b835260048301526024820152fd5b602490604051906306439c6b60e01b82526004820152fd5b3461057a57602036600319011261057a576001600160a01b038061117c611a3c565b166000526003602052604060002090815460ff81166111a960026111a260018701611aca565b9501611aca565b906040519460028210156104fb5785946111eb946111dd93875260081c166020860152608060408601526080850190611b70565b908382036060850152611b70565b0390f35b3461057a57600036600319011261057a57611208611c5c565b600080546001600160a01b0319811682556001600160a01b03167f8be0079c531659141344cd1fd0a4f28419497f9722a3daafe3b4186f6b6457e08280a3005b3461057a57602036600319011261057a57611261611a3c565b611269611c5c565b60018060a01b038091169081600052600260205260ff60026040600020015460081c16156113e057811561139b57816000526002602052600260406000200161ff0019815416905560005b6004549081811015611393578291846112cc83611be1565b959054600396871b1c16146112ec57506112e7919250611ef0565b6112b4565b6000199181830191821161137d57610b148461130a61131794611be1565b905490881b1c1691611be1565b600454801561136757019161132b83611be1565b81939154921b1b191690556004555b7fbbe72b7d9dcb594ee398a4a617885aba53d833e2aad601c813ce9df99fdeb49b602060405160008152a2005b634e487b7160e01b600052603160045260246000fd5b634e487b7160e01b600052601160045260246000fd5b50505061133a565b60405162461bcd60e51b815260206004820152601860248201527f43616e6e6f742072656d6f7665206e6174697665204f4e4500000000000000006044820152606490fd5b6040516306439c6b60e01b815260048101839052602490fd5b3461057a57602036600319011261057a57600435611415611c5c565b801561142057600555005b60405162461bcd60e51b815260206004820152600f60248201526e496e76616c6964206d61782061676560881b6044820152606490fd5b3461057a57604036600319011261057a57611470611a3c565b6024359061147c611c5c565b60018060a01b03169081600052600260205260ff60026040600020015460081c16156113e05780156114f05760407fb556fac599c3c70efb9ab1fa725ecace6c81cc48d1455f886607def065f3e0c091836000526002602052816000208181556001429101558151908152426020820152a2005b60249060405190637cb1974360e11b82526004820152fd5b3461057a57604036600319011261057a57611521611a3c565b602490813560018060a01b03809216908160005260029260209380855260ff9182826040600020015460081c161561187d578460005260038652604060002091825492848416938285101561186857839160018096146000146117ec576060916115a79160405194858094819363195556f360e21b83528b8a8201910160048401611d9b565b039260081c165afa9081156108e9576000916117ce575b506040888201519101518082106000146117c757505b6115de8142611cb4565b6005548091116117aa5750505b841561090a57856000528087526040600020926040519361160b85611a8c565b82815491828752838101548b8801520154946060876040830197818116895260081c161515910152966000526003885260406000209283549286841681811015611795578314611726575b5050505050818151166012811460001461168c57505050670de0b6b3a764000080820291820403610855576107c6929350611ed0565b6012819795949697106000146116ea57506116ac916107f9915116611e9b565b91670de0b6b3a7640000808502948504036116d6575061085092916116d091611ebd565b90611ed0565b634e487b7160e01b60009081526011600452fd5b6117019394969592506107fe91506107f990611e88565b670de0b6b3a76400009081810291818304149015171561085557610850929350611ed0565b60405163195556f360e21b8152959850606094869493859392849261175392918101910160048401611d9b565b039260081c165afa9081156108e957600091611777575b5051928680808080611656565b61178f915060603d81116108e2576108d48183611aa8565b8661176a565b8b634e487b7160e01b60005260216004526000fd5b6044925089604051926304e61d6960e31b84526004840152820152fd5b90506115d4565b6117e6915060603d81116108e2576108d48183611aa8565b896115be565b50505085600052808752604060002061183760405161180a81611a8c565b825481528583015490606088868d8401968588520154818116604085015260081c16151591015242611cb4565b906005548092116118495750506115eb565b6044918a915191604051926304e61d6960e31b84526004840152820152fd5b89634e487b7160e01b60005260216004526000fd5b6040516306439c6b60e01b8152600481018690528790fd5b3461057a57600036600319011261057a57602060405160008152f35b3461057a57600036600319011261057a576020600554604051908152f35b3461057a57602036600319011261057a576118e8611a3c565b600060606040516118f881611a8c565b828152826020820152826040820152015260018060a01b03166000526002602052608060406000206040519061192d82611a8c565b60ff81549283815260026001840154936020830194855201549282606060408401938287168552019460081c1615158452604051948552516020850152511660408301525115156060820152f35b3461057a57602036600319011261057a57611994611a3c565b61199c611c5c565b6001600160a01b03166000818152600260208190526040909120015460081c60ff1615611142578060005260036020526119ec60026040600020600081556119e660018201611fa2565b01611fa2565b7f7313ebacf8bc6476f7f0aa79bbe9458b17342a40016e78f03d662a579a00519d60c06040516000815260006020820152608060408201526000608082015260a06060820152600060a0820152a2005b600435906001600160a01b038216820361057a57565b90600182811c92168015611a82575b6020831014611a6c57565b634e487b7160e01b600052602260045260246000fd5b91607f1691611a61565b6080810190811067ffffffffffffffff82111761043257604052565b90601f8019910116810190811067ffffffffffffffff82111761043257604052565b9060405191826000825492611ade84611a52565b908184526001948581169081600014611b4d5750600114611b0a575b5050611b0892500383611aa8565b565b9093915060005260209081600020936000915b818310611b35575050611b0893508201013880611afa565b85548884018501529485019487945091830191611b1d565b915050611b0894506020925060ff191682840152151560051b8201013880611afa565b919082519283825260005b848110611b9c575050826000602080949584010152601f8019910116010190565b602081830181015184830182015201611b7b565b9181601f8401121561057a5782359167ffffffffffffffff831161057a576020808501948460051b01011161057a57565b600454811015611c185760046000527f8a35acfbc15ff81a39ae7d344fd709f28e8600b4aa8c65c6b64bfe7fe36bd19b0190600090565b634e487b7160e01b600052603260045260246000fd5b9181601f8401121561057a5782359167ffffffffffffffff831161057a576020838186019501011161057a57565b6000546001600160a01b03163303611c7057565b606460405162461bcd60e51b815260206004820152602060248201527f4f776e61626c653a2063616c6c6572206973206e6f7420746865206f776e65726044820152fd5b9190820391821161137d57565b9081606091031261057a5760405190606082019082821067ffffffffffffffff83111761043257604091825280518352602081015160208401520151604082015290565b9060009291805491611d1683611a52565b918282526001938481169081600014611d785750600114611d38575b50505050565b90919394506000526020928360002092846000945b838610611d64575050505001019038808080611d32565b805485870183015294019385908201611d4d565b9294505050602093945060ff191683830152151560051b01019038808080611d32565b9091611db2611dc093604084526040840190611d05565b916020818403910152611d05565b90565b60018060a01b0380911660009080825260036020526040822092835460ff81166002811015611e7457600114611e055750506040925081526002602052205490565b60405163195556f360e21b8152939460609350849283918290611e3390600281019060010160048401611d9b565b039260081c165afa918215611e685791611e4c57505190565b611e64915060603d81116108e2576108d48183611aa8565b5190565b604051903d90823e3d90fd5b634e487b7160e01b85526021600452602485fd5b60ff6011199116019060ff821161137d57565b60ff166012039060ff821161137d57565b60ff16604d811161137d57600a0a90565b8181029291811591840414171561137d57565b8115611eda570490565b634e487b7160e01b600052601260045260246000fd5b600019811461137d5760010190565b9190811015611c185760051b0190565b356001600160a01b038116810361057a5790565b92919267ffffffffffffffff82116104325760405191611f4d601f8201601f191660200184611aa8565b82948184528183011161057a578281602093846000960137010152565b818110611f75575050565b60008155600101611f6a565b908060209392818452848401376000828201840152601f01601f1916010190565b611fac8154611a52565b9081611fb6575050565b81601f60009311600114611fc8575055565b908083918252611fe7601f60208420940160051c840160018501611f6a565b5555565b9060018060a01b03809216916000838152600260205260409160ff6002848420015460081c16156120ee57600360205282822080549060ff82166002811015611e7457600114612059575050509081612051939460019352600260205220015442611cb4565b600554101590565b845163195556f360e21b81529650606092879291839190829061208790600281019060010160048401611d9b565b039260081c165afa9182156120e457612051939482936120c4575b5060208301519201519050808210156120bd57505b42611cb4565b90506120b7565b6120dd91935060603d81116108e2576108d48183611aa8565b91386120a2565b51903d90823e3d90fd5b5092505056fea26469706673582212200a34e1e029134f69b3ebf24155891fda36f7e6defdb7f2bdf24546bf4257a07f64736f6c63430008120033",
  "linkReferences": {},
  "deployedLinkReferences": {}
}