{
  "_format": "hh-sol-artifact-1",
  "contractName": "TestGameLibCaller",
  "sourceName": "contracts/test/TestGameLibCaller.sol",
  "abi": [
    {
      "inputs": [],
      "name": "InvalidNumber",
      "type": "error"
    },
    {
      "inputs": [],
      "name": "InvalidPackedData",
      "type": "error"
    },
    {
      "inputs": [
        {
          "internalType": "uint32",
          "name": "a",
          "type": "uint32"
        },
        {
          "internalType": "uint32",
          "name": "b",
          "type": "uint32"
        }
      ],
      "name": "countEasy",
      "outputs": [
        {
          "internalType": "uint8",
          "name": "",
          "type": "uint8"
        }
      ],
      "stateMutability": "pure",
      "type": "function"
    },
    {
      "inputs": [
        {
          "internalType": "uint32",
          "name": "a",
          "type": "uint32"
        },
        {
          "internalType": "uint32",
          "name": "b",
          "type": "uint32"
        }
      ],
      "name": "countSuper",
      "outputs": [
        {
          "internalType": "uint8",
          "name": "",
          "type": "uint8"
        }
      ],
      "stateMutability": "pure",
      "type": "function"
    },
    {
      "inputs": [
        {
          "internalType": "uint256",
          "name": "randomness",
          "type": "uint256"
        },
        {
          "internalType": "uint32",
          "name": "drawId",
          "type": "uint32"
        }
      ],
      "name": "genEasy",
      "outputs": [
        {
          "internalType": "uint32",
          "name": "",
          "type": "uint32"
        }
      ],
      "stateMutability": "pure",
      "type": "function"
    },
    {
      "inputs": [
        {
          "internalType": "uint256",
          "name": "randomness",
          "type": "uint256"
        },
        {
          "internalType": "uint32",
          "name": "drawId",
          "type": "uint32"
        }
      ],
      "name": "genSuper",
      "outputs": [
        {
          "internalType": "uint32",
          "name": "",
          "type": "uint32"
        }
      ],
      "stateMutability": "pure",
      "type": "function"
    },
    {
      "inputs": [
        {
          "internalType": "uint8[]",
          "name": "numbers",
          "type": "uint8[]"
        }
      ],
      "name": "packEasy",
      "outputs": [
        {
          "internalType": "uint32",
          "name": "",
          "type": "uint32"
        }
      ],
      "stateMutability": "pure",
      "type": "function"
    },
    {
      "inputs": [
        {
          "internalType": "uint8[]",
          "name": "cols",
          "type": "uint8[]"
        }
      ],
      "name": "packSuper",
      "outputs": [
        {
          "internalType": "uint32",
          "name": "",
          "type": "uint32"
        }
      ],
      "stateMutability": "pure",
      "type": "function"
    },
    {
      "inputs": [
        {
          "internalType": "uint32",
          "name": "packed",
          "type": "uint32"
        }
      ],
      "name": "unpackEasy",
      "outputs": [
        {
          "internalType": "uint8[]",
          "name": "",
          "type": "uint8[]"
        }
      ],
      "stateMutability": "pure",
      "type": "function"
    },
    {
      "inputs": [
        {
          "internalType": "uint32",
          "name": "packed",
          "type": "uint32"
        }
      ],
      "name": "unpackSuper",
      "outputs": [
        {
          "internalType": "uint8[]",
          "name": "",
          "type": "uint8[]"
        }
      ],
      "stateMutability": "pure",
      "type": "function"
    },
    {
      "inputs": [
        {
          "internalType": "uint8[]",
          "name": "numbers",
          "type": "uint8[]"
        }
      ],
      "name": "validateEasy",
      "outputs": [
        {
          "internalType": "bool",
          "name": "",
          "type": "bool"
        }
      ],
      "stateMutability": "pure",
      "type": "function"
    },
    {
      "inputs": [
        {
          "internalType": "uint8[]",
          "name": "cols",
          "type": "uint8[]"
        }
      ],
      "name": "validateSuper",
      "outputs": [
        {
          "internalType": "bool",
          "name": "",
          "type": "bool"
        }
      ],
      "stateMutability": "pure",
      "type": "function"
    }
  ],
  "bytecode": "0x60808060405234610016576109ab908161001c8239f35b600080fdfe6040608081526004908136101561001557600080fd5b600090813560e01c806329f3ccec146106245780633869b402146105b0578063458f7d8d1461059657806351ea7b6e1461049e578063698d77ea1461047b5780636b153f60146103fb57806398b6460314610380578063b5c1f32c1461023a578063bdc9960c146101625763d51436f61461008f57600080fd5b3461015e57602036600319011261015e576100a86106b5565b91815190610100820182811067ffffffffffffffff82111761014b57839492945263ffffffff60079182865260e03660208801379216915b60ff8082168381101561013a5790610115600992600f878461010188610960565b161c1661010e828b61081c565b528861081c565b51161161012a57610125906108fe565b6100e0565b83516338bfed7360e11b81528690fd5b85518061014789826107b9565b0390f35b634e487b7160e01b825260418652602482fd5b5080fd5b5091903461023757826003193601126102375761017d6106cd565b83519235602080850191825260e09290921b6001600160e01b0319166040850152602484529093601f19939091906101b66044826106e0565b519020825b60ff916007838616101561022857835187810191825260f886901b6001600160f81b0319166020830152610222929163ffffffff916102048160218401038a81018352826106e0565b5190209380600a8606169061021888610960565b161b1617936108fe565b926101bb565b868263ffffffff865191168152f35b80fd5b50823461037c57602036600319011261037c576102556106b5565b928091815b60ff8116601981101561029b57600163ffffffff911b871616610286575b610281906108fe565b61025a565b92610293610281916108fe565b939050610278565b505092918460ff80921690600f82108015610372575b610362576102be82610718565b916102cb865193846106e0565b8083526102da601f1991610718565b013660208401378390845b84811660198110156103555760019063ffffffff82821b851616610314575b505061030f906108fe565b6102e5565b01858111610342579061030f91866103378161032f886108fe565b97168861081c565b911690529089610304565b634e487b7160e01b875260118952602487fd5b87518061014787826107b9565b84516338bfed7360e11b81528690fd5b50601482116102b1565b8280fd5b5090346102375761039036610730565b9261039a84610859565b156103ed5750805b83518210156103dd576103d79063ffffffff600160ff6103cd816103c6888b61081c565b5116610846565b161b1617916107f7565b906103a2565b60209063ffffffff845191168152f35b82516374cbd35f60e01b8152fd5b509190346102375761040c36610730565b916104168361090f565b1561046d5750805b60ff808316600781101561045d5781610457939261044163ffffffff938861081c565b51169061044d86610960565b161b1617916108fe565b9061041e565b60208363ffffffff885191168152f35b83516374cbd35f60e01b8152fd5b503461015e5760209061049561049036610730565b61090f565b90519015158152f35b50823461037c578160031936011261037c576104b86106cd565b82518235602080830191825260e09390931b6001600160e01b031916604083015260248252601f1995929492916104f06044826106e0565b519020819582955b60ff92600f848916101561058857855182810191825260f889901b6001600160f81b03191660208301526105368160218401038581018352826106e0565b51902092601984069060019182810180911161034257816105579116610846565b161b63ffffffff9081818b161615610571575b50506104f8565b169097179695610580906108fe565b95888061056a565b50845163ffffffff89168152f35b503461015e576020906104956105ab36610730565b610859565b5090346102375781600319360112610237576105ca6106b5565b6105d26106cd565b1690805b60ff8116601981101561061757600163ffffffff911b841616610602575b6105fd906108fe565b6105d6565b9061060f6105fd916108fe565b9190506105f4565b60208360ff875191168152f35b50903461023757816003193601126102375761063e6106b5565b906106476106cd565b63ffffffff9283169216815b60ff600781831610156106a857600f8381878461066f87610960565b161c169261067c85610960565b161c1614610693575b61068e906108fe565b610653565b916106a061068e916108fe565b929050610685565b60208460ff885191168152f35b6004359063ffffffff821682036106c857565b600080fd5b6024359063ffffffff821682036106c857565b90601f8019910116810190811067ffffffffffffffff82111761070257604052565b634e487b7160e01b600052604160045260246000fd5b67ffffffffffffffff81116107025760051b60200190565b6020806003198301126106c8576004359167ffffffffffffffff83116106c857806023840112156106c857826004013561076981610718565b9361077760405195866106e0565b81855260248486019260051b8201019283116106c857602401905b8282106107a0575050505090565b813560ff811681036106c8578152908301908301610792565b6020908160408183019282815285518094520193019160005b8281106107e0575050505090565b835160ff16855293810193928101926001016107d2565b60001981146108065760010190565b634e487b7160e01b600052601160045260246000fd5b80518210156108305760209160051b010190565b634e487b7160e01b600052603260045260246000fd5b60ff6000199116019060ff821161080657565b8051600f81109081156108f3575b506108ed576000805b82518210156108e55760ff80610886848661081c565b51169060019182811080156108db575b6108d0576108a390610846565b161b9063ffffffff80838316166108c6576108c0921617916107f7565b90610870565b5050505050600090565b505050505050600090565b5060198111610896565b505050600190565b50600090565b601491501138610867565b60ff1660ff81146108065760010190565b6007908181510361095957600090815b83811061092f5750505050600190565b600960ff61093d838561081c565b5116116109525761094d906107f7565b61091f565b5050905090565b5050600090565b60021b906103fc60fc8316921682036108065756fea26469706673582212208c7f0aa9c51fd8974ab50797dceb68e778484b9d1e26f09432943ee44b19c9bd64736f6c63430008120033",
  "linkReferences": {},
  "deployedLinkReferences": {}
}