{
  "_format": "hh-sol-artifact-1",
  "contractName": "RevertingAgent",
  "sourceName": "contracts/test/RevertingAgent.sol",
  "abi": [
    {
      "inputs": [
        {
          "internalType": "address",
          "name": "agentProxy",
          "type": "address"
        }
      ],
      "name": "triggerWithdraw",
      "outputs": [],
      "stateMutability": "nonpayable",
      "type": "function"
    }
  ],
  "bytecode": "0x608080604052346100155760dd908161001b8239f35b600080fdfe6080806040526004361015601257600080fd5b600090813560e01c634f69dd3d14602857600080fd5b3460a357602036600319011260a357816004356001600160a01b0381169081900360a357803b1560a357600483838193633e25e83760e01b83525af180156098576070575080f35b67ffffffffffffffff811160845760405280f35b634e487b7160e01b82526041600452602482fd5b6040513d84823e3d90fd5b5080fdfea2646970667358221220463d9583f6c8f2e819ca72e0eb6fe077e76938bf8f8f846c3303ceddb4ebda3d64736f6c63430008120033",
  "linkReferences": {},
  "deployedLinkReferences": {}
}