{
  "_format": "hh-sol-artifact-1",
  "contractName": "TicketNFT",
  "sourceName": "contracts/TicketNFT.sol",
  "abi": [
    {
      "inputs": [],
      "stateMutability": "nonpayable",
      "type": "constructor"
    },
    {
      "inputs": [],
      "name": "OnlyCryptoDrawContract",
      "type": "error"
    },
    {
      "inputs": [],
      "name": "TokenNotExists",
      "type": "error"
    },
    {
      "inputs": [],
      "name": "TransferNotAllowed",
      "type": "error"
    },
    {
      "anonymous": false,
      "inputs": [
        {
          "indexed": true,
          "internalType": "address",
          "name": "owner",
          "type": "address"
        },
        {
          "indexed": true,
          "internalType": "address",
          "name": "approved",
          "type": "address"
        },
        {
          "indexed": true,
          "internalType": "uint256",
          "name": "tokenId",
          "type": "uint256"
        }
      ],
      "name": "Approval",
      "type": "event"
    },
    {
      "anonymous": false,
      "inputs": [
        {
          "indexed": true,
          "internalType": "address",
          "name": "owner",
          "type": "address"
        },
        {
          "indexed": true,
          "internalType": "address",
          "name": "operator",
          "type": "address"
        },
        {
          "indexed": false,
          "internalType": "bool",
          "name": "approved",
          "type": "bool"
        }
      ],
      "name": "ApprovalForAll",
      "type": "event"
    },
    {
      "anonymous": false,
      "inputs": [
        {
          "indexed": true,
          "internalType": "address",
          "name": "previousOwner",
          "type": "address"
        },
        {
          "indexed": true,
          "internalType": "address",
          "name": "newOwner",
          "type": "address"
        }
      ],
      "name": "OwnershipTransferred",
      "type": "event"
    },
    {
      "anonymous": false,
      "inputs": [
        {
          "indexed": true,
          "internalType": "uint256",
          "name": "tokenId",
          "type": "uint256"
        }
      ],
      "name": "TicketBurned",
      "type": "event"
    },
    {
      "anonymous": false,
      "inputs": [
        {
          "indexed": true,
          "internalType": "address",
          "name": "to",
          "type": "address"
        },
        {
          "indexed": true,
          "internalType": "uint256",
          "name": "tokenId",
          "type": "uint256"
        },
        {
          "indexed": false,
          "internalType": "enum TicketNFT.GameType",
          "name": "game",
          "type": "uint8"
        },
        {
          "indexed": false,
          "internalType": "uint256",
          "name": "drawRound",
          "type": "uint256"
        },
        {
          "indexed": false,
          "internalType": "uint8",
          "name": "rounds",
          "type": "uint8"
        }
      ],
      "name": "TicketMinted",
      "type": "event"
    },
    {
      "anonymous": false,
      "inputs": [
        {
          "indexed": true,
          "internalType": "uint256",
          "name": "tokenId",
          "type": "uint256"
        },
        {
          "indexed": false,
          "internalType": "enum TicketNFT.TicketStatus",
          "name": "oldStatus",
          "type": "uint8"
        },
        {
          "indexed": false,
          "internalType": "enum TicketNFT.TicketStatus",
          "name": "newStatus",
          "type": "uint8"
        }
      ],
      "name": "TicketStatusUpdated",
      "type": "event"
    },
    {
      "anonymous": false,
      "inputs": [
        {
          "indexed": true,
          "internalType": "address",
          "name": "from",
          "type": "address"
        },
        {
          "indexed": true,
          "internalType": "address",
          "name": "to",
          "type": "address"
        },
        {
          "indexed": true,
          "internalType": "uint256",
          "name": "tokenId",
          "type": "uint256"
        }
      ],
      "name": "Transfer",
      "type": "event"
    },
    {
      "inputs": [
        {
          "internalType": "address",
          "name": "to",
          "type": "address"
        },
        {
          "internalType": "uint256",
          "name": "tokenId",
          "type": "uint256"
        }
      ],
      "name": "approve",
      "outputs": [],
      "stateMutability": "nonpayable",
      "type": "function"
    },
    {
      "inputs": [
        {
          "internalType": "address",
          "name": "owner",
          "type": "address"
        }
      ],
      "name": "balanceOf",
      "outputs": [
        {
          "internalType": "uint256",
          "name": "",
          "type": "uint256"
        }
      ],
      "stateMutability": "view",
      "type": "function"
    },
    {
      "inputs": [
        {
          "internalType": "uint256",
          "name": "tokenId",
          "type": "uint256"
        }
      ],
      "name": "burn",
      "outputs": [],
      "stateMutability": "nonpayable",
      "type": "function"
    },
    {
      "inputs": [],
      "name": "cryptoDrawAddress",
      "outputs": [
        {
          "internalType": "address",
          "name": "",
          "type": "address"
        }
      ],
      "stateMutability": "view",
      "type": "function"
    },
    {
      "inputs": [
        {
          "internalType": "uint256",
          "name": "tokenId",
          "type": "uint256"
        }
      ],
      "name": "decrementRounds",
      "outputs": [],
      "stateMutability": "nonpayable",
      "type": "function"
    },
    {
      "inputs": [
        {
          "internalType": "uint256",
          "name": "tokenId",
          "type": "uint256"
        }
      ],
      "name": "getApproved",
      "outputs": [
        {
          "internalType": "address",
          "name": "",
          "type": "address"
        }
      ],
      "stateMutability": "view",
      "type": "function"
    },
    {
      "inputs": [
        {
          "internalType": "uint256",
          "name": "tokenId",
          "type": "uint256"
        }
      ],
      "name": "getTicket",
      "outputs": [
        {
          "components": [
            {
              "internalType": "address",
              "name": "player",
              "type": "address"
            },
            {
              "internalType": "enum TicketNFT.GameType",
              "name": "game",
              "type": "uint8"
            },
            {
              "internalType": "uint32",
              "name": "numbersPacked",
              "type": "uint32"
            },
            {
              "internalType": "uint256",
              "name": "drawRound",
              "type": "uint256"
            },
            {
              "internalType": "uint8",
              "name": "roundsBought",
              "type": "uint8"
            },
            {
              "internalType": "uint8",
              "name": "roundsRemaining",
              "type": "uint8"
            },
            {
              "internalType": "uint256",
              "name": "createdAt",
              "type": "uint256"
            },
            {
              "internalType": "enum TicketNFT.TicketStatus",
              "name": "status",
              "type": "uint8"
            }
          ],
          "internalType": "struct TicketNFT.Ticket",
          "name": "ticket",
          "type": "tuple"
        }
      ],
      "stateMutability": "view",
      "type": "function"
    },
    {
      "inputs": [
        {
          "internalType": "uint256",
          "name": "tokenId",
          "type": "uint256"
        }
      ],
      "name": "getTicketBasic",
      "outputs": [
        {
          "internalType": "address",
          "name": "player",
          "type": "address"
        },
        {
          "internalType": "enum TicketNFT.GameType",
          "name": "game",
          "type": "uint8"
        },
        {
          "internalType": "uint32",
          "name": "numbersPacked",
          "type": "uint32"
        },
        {
          "internalType": "uint256",
          "name": "drawRound",
          "type": "uint256"
        }
      ],
      "stateMutability": "view",
      "type": "function"
    },
    {
      "inputs": [
        {
          "internalType": "uint256",
          "name": "tokenId",
          "type": "uint256"
        }
      ],
      "name": "getTicketStatus",
      "outputs": [
        {
          "internalType": "enum TicketNFT.TicketStatus",
          "name": "",
          "type": "uint8"
        }
      ],
      "stateMutability": "view",
      "type": "function"
    },
    {
      "inputs": [
        {
          "internalType": "address",
          "name": "owner",
          "type": "address"
        },
        {
          "internalType": "address",
          "name": "operator",
          "type": "address"
        }
      ],
      "name": "isApprovedForAll",
      "outputs": [
        {
          "internalType": "bool",
          "name": "",
          "type": "bool"
        }
      ],
      "stateMutability": "view",
      "type": "function"
    },
    {
      "inputs": [
        {
          "internalType": "uint256",
          "name": "tokenId",
          "type": "uint256"
        }
      ],
      "name": "isTicketActive",
      "outputs": [
        {
          "internalType": "bool",
          "name": "",
          "type": "bool"
        }
      ],
      "stateMutability": "view",
      "type": "function"
    },
    {
      "inputs": [
        {
          "internalType": "address",
          "name": "to",
          "type": "address"
        },
        {
          "internalType": "enum TicketNFT.GameType",
          "name": "game",
          "type": "uint8"
        },
        {
          "internalType": "uint32",
          "name": "numbersPacked",
          "type": "uint32"
        },
        {
          "internalType": "uint256",
          "name": "drawRound",
          "type": "uint256"
        },
        {
          "internalType": "uint8",
          "name": "rounds",
          "type": "uint8"
        }
      ],
      "name": "mint",
      "outputs": [
        {
          "internalType": "uint256",
          "name": "",
          "type": "uint256"
        }
      ],
      "stateMutability": "nonpayable",
      "type": "function"
    },
    {
      "inputs": [],
      "name": "name",
      "outputs": [
        {
          "internalType": "string",
          "name": "",
          "type": "string"
        }
      ],
      "stateMutability": "view",
      "type": "function"
    },
    {
      "inputs": [],
      "name": "owner",
      "outputs": [
        {
          "internalType": "address",
          "name": "",
          "type": "address"
        }
      ],
      "stateMutability": "view",
      "type": "function"
    },
    {
      "inputs": [
        {
          "internalType": "uint256",
          "name": "tokenId",
          "type": "uint256"
        }
      ],
      "name": "ownerOf",
      "outputs": [
        {
          "internalType": "address",
          "name": "",
          "type": "address"
        }
      ],
      "stateMutability": "view",
      "type": "function"
    },
    {
      "inputs": [],
      "name": "renounceOwnership",
      "outputs": [],
      "stateMutability": "nonpayable",
      "type": "function"
    },
    {
      "inputs": [
        {
          "internalType": "address",
          "name": "from",
          "type": "address"
        },
        {
          "internalType": "address",
          "name": "to",
          "type": "address"
        },
        {
          "internalType": "uint256",
          "name": "tokenId",
          "type": "uint256"
        }
      ],
      "name": "safeTransferFrom",
      "outputs": [],
      "stateMutability": "nonpayable",
      "type": "function"
    },
    {
      "inputs": [
        {
          "internalType": "address",
          "name": "from",
          "type": "address"
        },
        {
          "internalType": "address",
          "name": "to",
          "type": "address"
        },
        {
          "internalType": "uint256",
          "name": "tokenId",
          "type": "uint256"
        },
        {
          "internalType": "bytes",
          "name": "data",
          "type": "bytes"
        }
      ],
      "name": "safeTransferFrom",
      "outputs": [],
      "stateMutability": "nonpayable",
      "type": "function"
    },
    {
      "inputs": [
        {
          "internalType": "address",
          "name": "operator",
          "type": "address"
        },
        {
          "internalType": "bool",
          "name": "approved",
          "type": "bool"
        }
      ],
      "name": "setApprovalForAll",
      "outputs": [],
      "stateMutability": "nonpayable",
      "type": "function"
    },
    {
      "inputs": [
        {
          "internalType": "address",
          "name": "_cryptoDrawAddress",
          "type": "address"
        }
      ],
      "name": "setCryptoDrawAddress",
      "outputs": [],
      "stateMutability": "nonpayable",
      "type": "function"
    },
    {
      "inputs": [
        {
          "internalType": "bytes4",
          "name": "interfaceId",
          "type": "bytes4"
        }
      ],
      "name": "supportsInterface",
      "outputs": [
        {
          "internalType": "bool",
          "name": "",
          "type": "bool"
        }
      ],
      "stateMutability": "view",
      "type": "function"
    },
    {
      "inputs": [],
      "name": "symbol",
      "outputs": [
        {
          "internalType": "string",
          "name": "",
          "type": "string"
        }
      ],
      "stateMutability": "view",
      "type": "function"
    },
    {
      "inputs": [
        {
          "internalType": "uint256",
          "name": "tokenId",
          "type": "uint256"
        }
      ],
      "name": "tokenURI",
      "outputs": [
        {
          "internalType": "string",
          "name": "",
          "type": "string"
        }
      ],
      "stateMutability": "view",
      "type": "function"
    },
    {
      "inputs": [
        {
          "internalType": "address",
          "name": "from",
          "type": "address"
        },
        {
          "internalType": "address",
          "name": "to",
          "type": "address"
        },
        {
          "internalType": "uint256",
          "name": "tokenId",
          "type": "uint256"
        }
      ],
      "name": "transferFrom",
      "outputs": [],
      "stateMutability": "nonpayable",
      "type": "function"
    },
    {
      "inputs": [
        {
          "internalType": "address",
          "name": "newOwner",
          "type": "address"
        }
      ],
      "name": "transferOwnership",
      "outputs": [],
      "stateMutability": "nonpayable",
      "type": "function"
    },
    {
      "inputs": [
        {
          "internalType": "uint256",
          "name": "tokenId",
          "type": "uint256"
        },
        {
          "internalType": "enum TicketNFT.TicketStatus",
          "name": "newStatus",
          "type": "uint8"
        }
      ],
      "name": "updateStatus",
      "outputs": [],
      "stateMutability": "nonpayable",
      "type": "function"
    }
  ],
  "bytecode": "0x60803462000360576001600160401b03906040818101838111838210176200034a578152601182526020917010dc9e5c1d1bd11c985dc8151a58dad95d607a1b83820152815193828501858110828211176200034a5783526005855264434452415760d81b8486015281518181116200034a576000948554916001948584811c941680156200033f575b838510146200032b578190601f94858111620002d8575b5083908583116001146200027457899262000268575b5050600019600383901b1c191690851b1786555b8651928311620002545783548481811c9116801562000249575b828210146200023557828111620001ed575b5080918311600114620001865750849582939495926200017a575b5050600019600383901b1c191690821b1790555b60068054336001600160a01b03198216811790925591519290916001600160a01b0316907f8be0079c531659141344cd1fd0a4f28419497f9722a3daafe3b4186f6b6457e09080a36124c29081620003668239f35b01519050388062000111565b90601f198316968487528287209287905b898210620001d5575050838596979810620001bb575b505050811b01905562000125565b015160001960f88460031b161c19169055388080620001ad565b80878596829496860151815501950193019062000197565b8487528187208380860160051c8201928487106200022b575b0160051c019085905b8281106200021f575050620000f6565b8881550185906200020f565b9250819262000206565b634e487b7160e01b87526022600452602487fd5b90607f1690620000e4565b634e487b7160e01b86526041600452602486fd5b015190503880620000b6565b898052848a208894509190601f1984168b5b87828210620002c15750508411620002a7575b505050811b018655620000ca565b015160001960f88460031b161c1916905538808062000299565b8385015186558b9790950194938401930162000286565b9091508880528389208580850160051c82019286861062000321575b918991869594930160051c01915b82811062000312575050620000a0565b8b815585945089910162000302565b92508192620002f4565b634e487b7160e01b88526022600452602488fd5b93607f169362000089565b634e487b7160e01b600052604160045260246000fd5b600080fdfe608080604052600436101561001357600080fd5b60003560e01c90816301ffc9a714611aad5750806306fdde03146119ee578063081812fc146119d0578063095ea7b3146118565780631a337ce31461175957806323b872dd146117355780633a1b3d311461168657806342842e0e1461165357806342966c68146114e8578063451ad1a7146111f25780634c54d9b2146110805780635e9a9793146110015780636352211e14610fd157806370a0823114610f3a578063715018a614610edd5780637dc379fa14610d805780638da5cb5b14610d5757806395d89b4114610c4c578063a22cb46514610b7a578063ab37a64f14610b52578063b88d4fde14610aa2578063c87b56dd146102ec578063d340460a146102c3578063e985e9c51461026d578063f2fde38b146101a95763fb87774c1461013d57600080fd5b346101a45760203660031901126101a4576004356000818152600260205260409020546001600160a01b031615610193576000526009602052602060ff600460406000200154166101916040518092611bce565bf35b604051626f708760e21b8152600490fd5b600080fd5b346101a45760203660031901126101a4576101c2611b60565b6101ca611c6e565b6001600160a01b0390811690811561021957600654826001600160601b0360a01b821617600655167f8be0079c531659141344cd1fd0a4f28419497f9722a3daafe3b4186f6b6457e0600080a3005b60405162461bcd60e51b815260206004820152602660248201527f4f776e61626c653a206e6577206f776e657220697320746865207a65726f206160448201526564647265737360d01b6064820152608490fd5b346101a45760403660031901126101a457610286611b60565b61028e611b76565b9060018060a01b03809116600052600560205260406000209116600052602052602060ff604060002054166040519015158152f35b346101a45760003660031901126101a4576008546040516001600160a01b039091168152602090f35b346101a45760203660031901126101a4576004356000908152600260205260409020546001600160a01b03161561019357600435600052600960205260406000206040519061033a82611bdb565b60ff600482549260018060a01b038416855263ffffffff6020860194610365858260a01c16876121e8565b60a81c16604086015260018101546060860152826002820154818116608088015260081c1660a0860152600381015460c0860152015416906103ab60e0840192836121f4565b516002811015610a6457610a7a576040516103c581611c14565b600a81526929bab832b929b2bb32b760b11b6020820152905b516004811015610a64576107ba916103f8610140926122e1565b6104036004356123f4565b9161043b60216040518095602360f81b602083015261042b8151809260208686019101611b18565b8101036001810186520184611c30565b6104466004356123f4565b956104c6604260405180997f68747470733a2f2f63727970746f647261772e696f2f696d616765732f0000006020830152855161048a81603d850160208a01611b18565b8201602f60f81b603d8201526104aa825180936020603e85019101611b18565b01632e706e6760e01b603e82015203602281018a520188611c30565b6104d360608201516123f4565b916104e160608301516123f4565b9061050160ff60a06104f8826080880151166123f4565b950151166123f4565b93604051998a97693d913730b6b2911d101160b11b60208a015261052f815180926020602a8d019101611b18565b88019161088b60f21b9283602a8201527f226465736372697074696f6e223a202243727970746f44726177200000000000602c820152845190610579826047830160208901611b18565b016f205469636b6574202d2044726177202360801b60478201526105a7825180936020605785019101611b18565b01826057820152691134b6b0b3b2911d101160b11b60598201526105d5825180936020606385019101611b18565b019060638201526e2261747472696275746573223a205b60881b60658201527f7b2274726169745f74797065223a202247616d65222c202276616c7565223a206074820152601160f91b6094820152610638825180936020609585019101611b18565b0162089f4b60ea1b60958201527f7b2274726169745f74797065223a20224472617720526f756e64222c202276616098820152650363ab2911d160d51b60b882015261068e82518093602060be85019101611b18565b0190611f4b60f21b918260be8201527f7b2274726169745f74797065223a2022526f756e647320426f75676874222c2060c0820152680113b30b63ab2911d160bd1b60e08201526106e982518093602060e985019101611b18565b018160e98201527f7b2274726169745f74797065223a2022526f756e64732052656d61696e696e6760eb8201526b0111610113b30b63ab2911d160a51b61010b820152825190610743826101179560208785019101611b18565b01918201527f7b2274726169745f74797065223a2022537461747573222c202276616c756522610119820152621d101160e91b6101398201528151906107938261013c9460208685019101611b18565b019061227d60f01b90820152615d7d60f01b61013e82015203610120810184520182611c30565b80519060028201808311610a4e57600390046001600160fe1b0381168103610a4e576107e89060021b61239b565b91604051906060820182811067ffffffffffffffff821117610a3857604052604082527f4142434445464748494a4b4c4d4e4f505152535455565758595a61626364656660208301527f6768696a6b6c6d6e6f707172737475767778797a303132333435363738392b2f60408301526000906000935b8183106108d4576108d0866108bc603d60405180937f646174613a6170706c69636174696f6e2f6a736f6e3b6261736536342c00000060208301526108ac8151809260208686019101611b18565b810103601d810184520182611c30565b604051918291602083526020830190611b3b565b0390f35b6108dd8361238c565b6108e88194836123cd565b519083811015610a2f576108fe6109059161238c565b94836123cd565b5160f81c5b83851015610a275761092561091e8661238c565b95846123cd565b5160f81c905b8160061c6003168160021b603c161791603f169160ff60f81b8481959382809560fa1c610958908d6123cd565b51169b8d6109658261238c565b9d60001a91610973916123cd565b5360041c600f169060f41c6030161761098c908a6123cd565b5116986109988161238c565b9960001a906109a7908c6123cd565b536040811015610a19576109bb90886123cd565b5116965b6109d66109cb8261238c565b9860001a918a6123cd565b536040811015610a0b576109ea90866123cd565b5116945b610a056109fa8261238c565b9660001a91886123cd565b5361085e565b50603d60f81b9590506109ee565b50603d60f81b9790506109bf565b60009061092b565b9350600061090a565b634e487b7160e01b600052604160045260246000fd5b634e487b7160e01b600052601160045260246000fd5b634e487b7160e01b600052602160045260246000fd5b604051610a8681611c14565b6009815268456173794c6f74746f60b81b6020820152906103de565b346101a45760803660031901126101a457610abb611b60565b610ac3611b76565b906064359060443567ffffffffffffffff83116101a457366023840112156101a457826004013593610af485611c52565b92610b026040519485611c30565b85845236602487870101116101a4576000602087610b50986024610b4b99018389013786010152610b3b610b368433611e4f565b611d76565b610b46838383611f17565b61215d565b611e2b565b005b346101a45760203660031901126101a4576020610b70600435612264565b6040519015158152f35b346101a45760403660031901126101a457610b93611b60565b602435908115158092036101a4576001600160a01b031690338214610c0757336000526005602052604060002082600052602052604060002060ff1981541660ff83161790556040519081527f17307eab39ab6107e8899845ad3d59bd9653f200f220920489ca2b5937696c3160203392a3005b60405162461bcd60e51b815260206004820152601960248201527f4552433732313a20617070726f766520746f2063616c6c6572000000000000006044820152606490fd5b346101a45760003660031901126101a457604051600060019081549182811c91818416918215610d4d575b6020948585108414610d37578587948686529182600014610d17575050600114610cbd575b50610ca992500383611c30565b6108d0604051928284938452830190611b3b565b6000818152859250907fb10e2d527612073b26eecdfd717e6a320cf44b4afac2b0732d9fcbe2b7fa0cf65b858310610cff575050610ca9935082010185610c9c565b80548389018501528794508693909201918101610ce8565b60ff191685820152610ca995151560051b8501019250879150610c9c9050565b634e487b7160e01b600052602260045260246000fd5b92607f1692610c77565b346101a45760003660031901126101a4576006546040516001600160a01b039091168152602090f35b346101a45760203660031901126101a457600435600060e0604051610da481611bdb565b8281528260208201528260408201528260608201528260808201528260a08201528260c08201520152610dec81600052600260205260018060a01b0360406000205416151590565b15610193576000526009602052604060002060405190610e0b82611bdb565b80546001600160a01b038082168452919060ff908160208601610e3460a084901c8316826121e8565b604087019263ffffffff809160a81c1684526001860154906060890191825260028701549460808a019385871685528560a08c019760081c1687528560038a01549960c08d019a8b5260040154169960e08c019a610e92908c6121f4565b6040519b51168b525160208b01610ea891611b8c565b5116604089015251606088015251166080860152511660a08401525160c08301525160e08201610ed791611bce565b61010090f35b346101a45760003660031901126101a457610ef6611c6e565b600680546001600160a01b031981169091556000906001600160a01b03167f8be0079c531659141344cd1fd0a4f28419497f9722a3daafe3b4186f6b6457e08280a3005b346101a45760203660031901126101a4576001600160a01b03610f5b611b60565b168015610f7a5760005260036020526020604060002054604051908152f35b60405162461bcd60e51b815260206004820152602960248201527f4552433732313a2061646472657373207a65726f206973206e6f7420612076616044820152683634b21037bbb732b960b91b6064820152608490fd5b346101a45760203660031901126101a4576020610fef600435611d12565b6040516001600160a01b039091168152f35b346101a45760203660031901126101a45761101a611b60565b611022611c6e565b6001600160a01b03168015611049576001600160601b0360a01b6008541617600855600080f35b60405162461bcd60e51b815260206004820152600f60248201526e496e76616c6964206164647265737360881b6044820152606490fd5b346101a45760203660031901126101a457600854600435906001600160a01b031633036111e0576000818152600260205260409020546001600160a01b0316156101935780600052600960205260406000206002810160ff815460081c169081156111a557805461ff00191660001990920160081b61ff001691909117815560ff905460081c1615908161118c575b5061111657005b6000818152600260205260409020546001600160a01b031615610193578060005260096020527f18124c6414837a5590a0affadc287d897d8ce272f7d07dd49b82f1688825bdfd604060ff61118260048360002001805490600184198316179055835192839116611bce565b60016020820152a2005b60ff915060040154166004811015610a6457158261110f565b60405162461bcd60e51b81526020600482015260136024820152724e6f20726f756e64732072656d61696e696e6760681b6044820152606490fd5b604051635f48bc0b60e11b8152600490fd5b346101a45760a03660031901126101a45761120b611b60565b600260243510156101a4576044359063ffffffff82168092036101a45760843560ff81168091036101a4576008546001600160a01b0390811633036111e0578083169081156114af576001831015806114a4575b1561146857611330610b4b6007549560018701600755866040519161128383611bf8565b6000808452828152600260205260409020546112ab906001600160a01b031615155b15612218565b6000828152600260205260409020546112ce906001600160a01b031615156112a5565b8660005260036020526040600020600181540190558160005260026020526040600020876001600160601b0360a01b825416179055818760007fddf252ad1be2c89b69c2b068fc378daa952ba7f163c4a11628f55a4df523b3ef8180a461203d565b6040519061133d82611bdb565b82825260208201611350602435826121e8565b60408301968752606083019060643597888352608085019087825260a0860188815260c087019442865260e0880196600088528b600052600960205260406000209851169488549051906002821015610a64576114019660ff9563ffffffff60a81b905160a81b16928660a01b9060a01b169166ffffffffffffff60c81b16171717885551600188015581600288019351168219845416178355511661ff0082549160081b169061ff001916179055565b516003830155516004811015610a6457602095859461144660609360047f91e4a9ced0987ddf0e53f2288b2507292c83858d59c05c5f8c45482d67fc1a989601612200565b6040519161145683602435611b8c565b888301526040820152a3604051908152f35b60405162461bcd60e51b8152602060048201526014602482015273125b9d985b1a59081c9bdd5b991cc818dbdd5b9d60621b6044820152606490fd5b50600683111561125f565b60405162461bcd60e51b8152602060048201526011602482015270125b9d985b1a59081c9958da5c1a595b9d607a1b6044820152606490fd5b346101a4576020806003193601126101a45760085460043591906001600160a01b0390811633036111e0576000838152600260205260409020546001600160a01b031615610193578260005260098252827f18124c6414837a5590a0affadc287d897d8ce272f7d07dd49b82f1688825bdfd604060ff61157f60048360002001805490600384198316179055835192839116611bce565b600386820152a28061159084611d12565b1615158061164b575b61163957829160009160026115ad85611d12565b918585526004845260408520926001600160601b0360a01b93848154169055169283855260038152604085208519815401905585855252604083209081541690557fddf252ad1be2c89b69c2b068fc378daa952ba7f163c4a11628f55a4df523b3ef8280a47fd6acdc6c4f4076335309cf5eeb3b91b03b26861765e0726fce70f4617de8c7c6600080a2005b604051638cd22d1960e01b8152600490fd5b506000611599565b346101a457610b50610b4b61166736611b99565b906040519261167584611bf8565b60008452610b3b610b368433611e4f565b346101a45760403660031901126101a45760043560243560048110156101a4576008546001600160a01b031633036111e0576000828152600260205260409020546001600160a01b0316156101935760407f18124c6414837a5590a0affadc287d897d8ce272f7d07dd49b82f1688825bdfd91836000526009602052611732600483600020019161171c8160ff85541694612200565b61172884518094611bce565b6020830190611bce565ba2005b346101a457610b5061174636611b99565b91611754610b368433611e4f565b611f17565b346101a45760203660031901126101a4576004356000818152600260205260409020546001600160a01b0316156101935760005260096020526040600020604051906117a482611bdb565b80546001600160a01b0380821684529092602081019290916117cd60a086901c60ff16856121e8565b604083019263ffffffff809660a81c16845261182060ff600460018601549560608501968752826002820154818116608088015260081c1660a0860152600381015460c086015201541660e083016121f4565b51169251916002831015610a645760809461184a9151169151926040519485526020850190611b8c565b60408301526060820152f35b346101a45760403660031901126101a45761186f611b60565b602435906001600160a01b03808061188685611d12565b169216918083146119815780331490811561195c575b50156118f157600083815260046020526040902080546001600160a01b031916831790556118c983611d12565b167f8c5be1e5ebec7d5bd14f71427d1e84f3dd0314c0f7b2291e5b200ac8c7c3b925600080a4005b60405162461bcd60e51b815260206004820152603d60248201527f4552433732313a20617070726f76652063616c6c6572206973206e6f7420746f60448201527f6b656e206f776e6572206f7220617070726f76656420666f7220616c6c0000006064820152608490fd5b9050600052600560205260406000203360005260205260ff604060002054168461189c565b60405162461bcd60e51b815260206004820152602160248201527f4552433732313a20617070726f76616c20746f2063757272656e74206f776e656044820152603960f91b6064820152608490fd5b346101a45760203660031901126101a4576020610fef600435611d38565b346101a45760003660031901126101a4576040516000805490600182811c91818416918215611aa3575b6020948585108414610d37578587948686529182600014610d17575050600114611a495750610ca992500383611c30565b6000808052859250907f290decd9548b62a8d60345a988386fc84ba6bc95484008f6362f93160ef3e5635b858310611a8b575050610ca9935082010185610c9c565b80548389018501528794508693909201918101611a74565b92607f1692611a18565b346101a45760203660031901126101a4576004359063ffffffff60e01b82168092036101a4576020916380ac58cd60e01b8114908115611b07575b8115611af6575b5015158152f35b6301ffc9a760e01b14905083611aef565b635b5e139f60e01b81149150611ae8565b60005b838110611b2b5750506000910152565b8181015183820152602001611b1b565b90602091611b5481518092818552858086019101611b18565b601f01601f1916010190565b600435906001600160a01b03821682036101a457565b602435906001600160a01b03821682036101a457565b906002821015610a645752565b60609060031901126101a4576001600160a01b039060043582811681036101a4579160243590811681036101a4579060443590565b906004821015610a645752565b610100810190811067ffffffffffffffff821117610a3857604052565b6020810190811067ffffffffffffffff821117610a3857604052565b6040810190811067ffffffffffffffff821117610a3857604052565b90601f8019910116810190811067ffffffffffffffff821117610a3857604052565b67ffffffffffffffff8111610a3857601f01601f191660200190565b6006546001600160a01b03163303611c8257565b606460405162461bcd60e51b815260206004820152602060248201527f4f776e61626c653a2063616c6c6572206973206e6f7420746865206f776e65726044820152fd5b15611ccd57565b60405162461bcd60e51b815260206004820152601860248201527f4552433732313a20696e76616c696420746f6b656e20494400000000000000006044820152606490fd5b6000908152600260205260409020546001600160a01b0316611d35811515611cc6565b90565b600081815260026020526040902054611d5b906001600160a01b03161515611cc6565b6000908152600460205260409020546001600160a01b031690565b15611d7d57565b60405162461bcd60e51b815260206004820152602d60248201527f4552433732313a2063616c6c6572206973206e6f7420746f6b656e206f776e6560448201526c1c881bdc88185c1c1c9bdd9959609a1b6064820152608490fd5b60809060208152603260208201527f4552433732313a207472616e7366657220746f206e6f6e20455243373231526560408201527131b2b4bb32b91034b6b83632b6b2b73a32b960711b60608201520190565b15611e3257565b60405162461bcd60e51b815280611e4b60048201611dd8565b0390fd5b906001600160a01b038080611e6384611d12565b16931691838314938415611e96575b508315611e80575b50505090565b611e8c91929350611d38565b1614388080611e7a565b909350600052600560205260406000208260005260205260ff604060002054169238611e72565b15611ec457565b60405162461bcd60e51b815260206004820152602560248201527f4552433732313a207472616e736665722066726f6d20696e636f72726563742060448201526437bbb732b960d91b6064820152608490fd5b90611f3f91611f2584611d12565b6001600160a01b0393918416928492909183168414611ebd565b16918215611fec5781151580611fe4575b6116395781611f6991611f6286611d12565b1614611ebd565b7fddf252ad1be2c89b69c2b068fc378daa952ba7f163c4a11628f55a4df523b3ef60008481526004602052604081206001600160601b0360a01b9081815416905583825260036020526040822060001981540190558482526040822060018154019055858252600260205284604083209182541617905580a4565b506001611f50565b60405162461bcd60e51b8152602060048201526024808201527f4552433732313a207472616e7366657220746f20746865207a65726f206164646044820152637265737360e01b6064820152608490fd5b9192600092909190803b156121535761208b946040518092630a85bd0160e11b9485835233600484015287602484015260448301526080606483015281878160209a8b966084830190611b3b565b03926001600160a01b03165af184918161210f575b506120fe575050503d6000146120f6573d6120ba81611c52565b906120c86040519283611c30565b81528091833d92013e5b805191826120f35760405162461bcd60e51b815280611e4b60048201611dd8565b01fd5b5060606120d2565b6001600160e01b0319161492509050565b9091508581813d831161214c575b6121278183611c30565b8101031261214857516001600160e01b0319811681036121485790386120a0565b8480fd5b503d61211d565b5050915050600190565b9293600093909291803b156121dd579484916121b79660405180948193630a85bd0160e11b9788845233600485015260018060a01b0380921660248501526044840152608060648401528260209b8c976084830190611b3b565b0393165af184918161210f57506120fe575050503d6000146120f6573d6120ba81611c52565b505050915050600190565b6002821015610a645752565b6004821015610a645752565b906004811015610a645760ff80198354169116179055565b1561221f57565b60405162461bcd60e51b815260206004820152601c60248201527f4552433732313a20746f6b656e20616c7265616479206d696e746564000000006044820152606490fd5b6000818152600260205260409020546001600160a01b0316156122db576000818152600960205260ff60046040832001541660048110156122c7571591826122ab57505090565b81526009602052604090206002015460081c60ff161515919050565b634e487b7160e01b82526021600452602482fd5b50600090565b6004811015610a645780156123695760018114612345576002146123215760405161230b81611c14565b6006815265109d5c9b995960d21b602082015290565b60405161232d81611c14565b600881526714995919595b595960c21b602082015290565b5060405161235281611c14565b6007815266115e1c1a5c995960ca1b602082015290565b5060405161237681611c14565b600681526541637469766560d01b602082015290565b6000198114610a4e5760010190565b906123a582611c52565b6123b26040519182611c30565b82815280926123c3601f1991611c52565b0190602036910137565b9081518110156123de570160200190565b634e487b7160e01b600052603260045260246000fd5b801561246e5780816000925b61245a575061240e8261239b565b9190805b61241b57505090565b600a906030928282068401809411610a4e578015610a4e57600019019260f81b6001600160f81b03191660001a61245284866123cd565b530480612412565b91612466600a9161238c565b920480612400565b5060405161247b81611c14565b60018152600360fc1b60208201529056fea2646970667358221220df0932805c7865929b0764022b45166bae647a0f964f02ad6241921ec180c81164736f6c63430008120033",
  "linkReferences": {},
  "deployedLinkReferences": {}
}