{
  "_format": "hh-sol-artifact-1",
  "contractName": "TestTicketNFCCaller",
  "sourceName": "contracts/test/TestTicketNFCCaller.sol",
  "abi": [
    {
      "inputs": [
        {
          "internalType": "address",
          "name": "_ticketNFT",
          "type": "address"
        }
      ],
      "stateMutability": "nonpayable",
      "type": "constructor"
    },
    {
      "inputs": [
        {
          "internalType": "uint256",
          "name": "tokenId",
          "type": "uint256"
        }
      ],
      "name": "callBurn",
      "outputs": [],
      "stateMutability": "nonpayable",
      "type": "function"
    },
    {
      "inputs": [
        {
          "internalType": "uint256",
          "name": "tokenId",
          "type": "uint256"
        }
      ],
      "name": "callDecrement",
      "outputs": [],
      "stateMutability": "nonpayable",
      "type": "function"
    },
    {
      "inputs": [
        {
          "internalType": "uint256",
          "name": "tokenId",
          "type": "uint256"
        },
        {
          "internalType": "uint8",
          "name": "status",
          "type": "uint8"
        }
      ],
      "name": "callUpdate",
      "outputs": [],
      "stateMutability": "nonpayable",
      "type": "function"
    },
    {
      "inputs": [],
      "name": "ticketNFT",
      "outputs": [
        {
          "internalType": "address",
          "name": "",
          "type": "address"
        }
      ],
      "stateMutability": "view",
      "type": "function"
    }
  ],
  "bytecode": "0x60803461007457601f6102ad38819003918201601f19168301916001600160401b038311848410176100795780849260209460405283398101031261007457516001600160a01b0381169081900361007457600080546001600160a01b03191691909117905560405161021d90816100908239f35b600080fd5b634e487b7160e01b600052604160045260246000fdfe6080604081815260048036101561001557600080fd5b600092833560e01c908163b393391b1461019957508063d95161ea1461011f57838163dacef8cf146100ca575063ec65dfc71461005157600080fd5b8291346100c65760203660031901126100c65782546001600160a01b031691823b156100c1578392602484928451958693849263262a6cd960e11b84528035908401525af19081156100b857506100a55750f35b6100ae906101bd565b6100b55780f35b80fd5b513d84823e3d90fd5b505050fd5b5050fd5b929050346100c65760203660031901126100c65782546001600160a01b031691823b156100c15783926024849284519586938492630852cd8d60e31b84528035908401525af19081156100b857506100a55750f35b5090346101915780600319360112610191578260243560ff81168091036101955781546001600160a01b031693843b15610191576044908385519687948593633a1b3d3160e01b855280359085015260248401525af19081156100b85750610185575080f35b61018e906101bd565b80f35b8280fd5b5080fd5b84903461019557816003193601126101955790546001600160a01b03168152602090f35b67ffffffffffffffff81116101d157604052565b634e487b7160e01b600052604160045260246000fdfea264697066735822122014367e24d32ae269c34f024ea17614e168ac94fcd122ae3de21ab80344063c1964736f6c63430008120033",
  "linkReferences": {},
  "deployedLinkReferences": {}
}