{
  "_format": "hh-sol-artifact-1",
  "contractName": "AgentProxy",
  "sourceName": "contracts/AgentProxy.sol",
  "abi": [
    {
      "inputs": [
        {
          "internalType": "address",
          "name": "_cryptoDrawAddress",
          "type": "address"
        }
      ],
      "stateMutability": "nonpayable",
      "type": "constructor"
    },
    {
      "anonymous": false,
      "inputs": [
        {
          "indexed": true,
          "internalType": "address",
          "name": "agent",
          "type": "address"
        }
      ],
      "name": "AgentDeactivated",
      "type": "event"
    },
    {
      "anonymous": false,
      "inputs": [
        {
          "indexed": true,
          "internalType": "address",
          "name": "agent",
          "type": "address"
        },
        {
          "indexed": false,
          "internalType": "uint16",
          "name": "commissionRate",
          "type": "uint16"
        }
      ],
      "name": "AgentRegistered",
      "type": "event"
    },
    {
      "anonymous": false,
      "inputs": [
        {
          "indexed": true,
          "internalType": "address",
          "name": "agent",
          "type": "address"
        },
        {
          "indexed": false,
          "internalType": "uint16",
          "name": "newRate",
          "type": "uint16"
        }
      ],
      "name": "CommissionRateUpdated",
      "type": "event"
    },
    {
      "anonymous": false,
      "inputs": [
        {
          "indexed": true,
          "internalType": "address",
          "name": "agent",
          "type": "address"
        },
        {
          "indexed": false,
          "internalType": "uint256",
          "name": "amount",
          "type": "uint256"
        }
      ],
      "name": "CommissionWithdrawn",
      "type": "event"
    },
    {
      "anonymous": false,
      "inputs": [
        {
          "indexed": false,
          "internalType": "uint16",
          "name": "newRate",
          "type": "uint16"
        }
      ],
      "name": "DefaultCommissionRateUpdated",
      "type": "event"
    },
    {
      "anonymous": false,
      "inputs": [
        {
          "indexed": true,
          "internalType": "address",
          "name": "previousOwner",
          "type": "address"
        },
        {
          "indexed": true,
          "internalType": "address",
          "name": "newOwner",
          "type": "address"
        }
      ],
      "name": "OwnershipTransferred",
      "type": "event"
    },
    {
      "anonymous": false,
      "inputs": [
        {
          "indexed": true,
          "internalType": "address",
          "name": "buyer",
          "type": "address"
        },
        {
          "indexed": true,
          "internalType": "address",
          "name": "agent",
          "type": "address"
        }
      ],
      "name": "TicketPurchasedThroughAgent",
      "type": "event"
    },
    {
      "inputs": [
        {
          "internalType": "uint256",
          "name": "",
          "type": "uint256"
        },
        {
          "internalType": "uint256[]",
          "name": "",
          "type": "uint256[]"
        },
        {
          "internalType": "uint256",
          "name": "",
          "type": "uint256"
        },
        {
          "internalType": "address",
          "name": "agent",
          "type": "address"
        }
      ],
      "name": "buyTicketThroughAgent",
      "outputs": [],
      "stateMutability": "payable",
      "type": "function"
    },
    {
      "inputs": [],
      "name": "cryptoDraw",
      "outputs": [
        {
          "internalType": "address",
          "name": "",
          "type": "address"
        }
      ],
      "stateMutability": "view",
      "type": "function"
    },
    {
      "inputs": [
        {
          "internalType": "address",
          "name": "agent",
          "type": "address"
        }
      ],
      "name": "deactivateAgent",
      "outputs": [],
      "stateMutability": "nonpayable",
      "type": "function"
    },
    {
      "inputs": [],
      "name": "defaultCommissionRate",
      "outputs": [
        {
          "internalType": "uint16",
          "name": "",
          "type": "uint16"
        }
      ],
      "stateMutability": "view",
      "type": "function"
    },
    {
      "inputs": [
        {
          "internalType": "address",
          "name": "agent",
          "type": "address"
        }
      ],
      "name": "getAgentInfo",
      "outputs": [
        {
          "components": [
            {
              "internalType": "bool",
              "name": "isActive",
              "type": "bool"
            },
            {
              "internalType": "uint16",
              "name": "commissionRate",
              "type": "uint16"
            },
            {
              "internalType": "uint256",
              "name": "totalTicketsSold",
              "type": "uint256"
            },
            {
              "internalType": "uint256",
              "name": "totalCommissionEarned",
              "type": "uint256"
            }
          ],
          "internalType": "struct AgentProxy.AgentInfo",
          "name": "",
          "type": "tuple"
        }
      ],
      "stateMutability": "view",
      "type": "function"
    },
    {
      "inputs": [],
      "name": "owner",
      "outputs": [
        {
          "internalType": "address",
          "name": "",
          "type": "address"
        }
      ],
      "stateMutability": "view",
      "type": "function"
    },
    {
      "inputs": [
        {
          "internalType": "address",
          "name": "agent",
          "type": "address"
        },
        {
          "internalType": "uint16",
          "name": "commissionRate",
          "type": "uint16"
        }
      ],
      "name": "registerAgent",
      "outputs": [],
      "stateMutability": "nonpayable",
      "type": "function"
    },
    {
      "inputs": [],
      "name": "renounceOwnership",
      "outputs": [],
      "stateMutability": "nonpayable",
      "type": "function"
    },
    {
      "inputs": [
        {
          "internalType": "uint16",
          "name": "newRate",
          "type": "uint16"
        }
      ],
      "name": "setDefaultCommissionRate",
      "outputs": [],
      "stateMutability": "nonpayable",
      "type": "function"
    },
    {
      "inputs": [
        {
          "internalType": "address",
          "name": "newOwner",
          "type": "address"
        }
      ],
      "name": "transferOwnership",
      "outputs": [],
      "stateMutability": "nonpayable",
      "type": "function"
    },
    {
      "inputs": [
        {
          "internalType": "address",
          "name": "agent",
          "type": "address"
        },
        {
          "internalType": "uint16",
          "name": "newRate",
          "type": "uint16"
        }
      ],
      "name": "updateAgentCommissionRate",
      "outputs": [],
      "stateMutability": "nonpayable",
      "type": "function"
    },
    {
      "inputs": [],
      "name": "withdrawCommission",
      "outputs": [],
      "stateMutability": "nonpayable",
      "type": "function"
    }
  ],
  "bytecode": "0x6080346100ba57601f610b0e38819003918201601f19168301916001600160401b038311848410176100bf578084926020946040528339810103126100ba57516001600160a01b0390818116908190036100ba576000543360018060a01b0319821617600055604051923391167f8be0079c531659141344cd1fd0a4f28419497f9722a3daafe3b4186f6b6457e0600080a360018055600280546001600160b01b031916909117607d60a21b179055610a3890816100d68239f35b600080fd5b634e487b7160e01b600052604160045260246000fdfe6040608081526004908136101561001557600080fd5b600091823560e01c908163152052b01461080e57816318912cae146107395781633e25e83714610593578163519659271461056d578163715018a6146105105781638da5cb5b146104e857816399035b7614610466578163a9628262146102eb578163b0a0a92714610285578163d75e868514610199578163f2fde38b146100d2575063f34c76c3146100a757600080fd5b346100ce57816003193601126100ce5760025490516001600160a01b039091168152602090f35b5080fd5b905034610195576020366003190112610195576100ed6108ae565b906100f66108da565b6001600160a01b0391821692831561014357505082546001600160a01b0319811683178455167f8be0079c531659141344cd1fd0a4f28419497f9722a3daafe3b4186f6b6457e08380a380f35b906020608492519162461bcd60e51b8352820152602660248201527f4f776e61626c653a206e6577206f776e657220697320746865207a65726f206160448201526564647265737360d01b6064820152fd5b8280fd5b919050346101955780600319360112610195576101b46108ae565b906101bd6108c9565b6101c56108da565b61ffff8116926101d96107d0851115610932565b6001600160a01b0316808652600360205282862080549195909160ff161561024557509161023d7e5ca718fce103c00866f11445dffeda1f863b26ba4d032bddaaa1c9dea2a49394926020949062ffff0082549160081b169062ffff001916179055565b51908152a280f35b61028190845191829162461bcd60e51b8352820160609060208152600d60208201526c1059d95b9d139bdd119bdd5b99609a1b60408201520190565b0390fd5b5050346100ce5760203660031901126100ce576102a06108ae565b6102a86108da565b6001600160a01b03168083526003602052908220805460ff191690557fa58c733780f5c1527d6106ff1e731cbf2e9ffc0eb11ad399ca33ea55f057ddf48280a280f35b91905060803660031901126101955760249167ffffffffffffffff833581811161046257366023820112156104625780830135918211610462578490369260051b01011161045e576064356001600160a01b038116939084900361045a57610351610976565b83855260036020528285209283549060ff821615610428575061ffff9060081c8116801561041a575b16928334029334850414341517156104085760018101805490600182018092116103f65790600292915501916127108354940484018094116103e557505055337ff22abb7024776f8f99f53b3479e373a6a57b10b84b9a31f58e370144ce1842cb8380a36001805580f35b634e487b7160e01b86526011905284fd5b634e487b7160e01b8852601185528388fd5b50634e487b7160e01b85526011825284fd5b508060025460a01c1661037a565b5162461bcd60e51b8152602081850152600e818401526d4167656e744e6f7441637469766560901b6044820152606490fd5b8480fd5b8380fd5b8580fd5b905034610195576020366003190112610195573561ffff811680820361045e577f61bcb3b7f63998d3f70e0b19db745ae7c3c0297f8973db8ec764c1bcb1d9e927926020926104b36108da565b6104c16107d0841115610932565b6002805461ffff60a01b191660a09290921b61ffff60a01b1691909117905551908152a180f35b5050346100ce57816003193601126100ce57905490516001600160a01b039091168152602090f35b833461056a578060031936011261056a576105296108da565b80546001600160a01b03198116825581906001600160a01b03167f8be0079c531659141344cd1fd0a4f28419497f9722a3daafe3b4186f6b6457e08280a380f35b80fd5b5050346100ce57816003193601126100ce5760209061ffff60025460a01c169051908152f35b919050346101955782600319360112610195576105ae610976565b338352600360205280832060ff815416158061072d575b6106f2576002019182549283156106b7578490558380808086335af13d156106b25767ffffffffffffffff3d81811161069f57845191601f8201601f19908116603f011683019081118382101761068c57855281528560203d92013e5b156106595750519081527fd244b5a3b2e3977ecffe1a5e5ab7661aadfecbae24be711b7a72bb42bd1b2db060203392a26001805580f35b6020606492519162461bcd60e51b8352820152600e60248201526d151c985b9cd9995c91985a5b195960921b6044820152fd5b634e487b7160e01b885260418552602488fd5b634e487b7160e01b875260418452602487fd5b610622565b506020606492519162461bcd60e51b835282015260156024820152744e6f436f6d6d697373696f6e417661696c61626c6560581b6044820152fd5b815162461bcd60e51b81526020818501818152600d918101919091526c1059d95b9d139bdd119bdd5b99609a1b604082015281906060010390fd5b506002810154156105c5565b919050346101955780600319360112610195576107546108ae565b9061075d6108c9565b916107666108da565b6001600160a01b03169283156107db57508160209161023d61ffff7f5603ffe77a483b409c0b83478050c521d2dfb14891977556a459ec961c7ab0319516926107b36107d0851115610932565b86885260038552828820805462ffffff191660089290921b62ffff0016919091176001179055565b6020606492519162461bcd60e51b8352820152600e60248201526d496e76616c69644164647265737360901b6044820152fd5b5050346100ce5760203660031901126100ce578060809261082d6108ae565b8160606108386109cc565b8281528260208201528286820152015260018060a01b03168152600360205220906108616109cc565b9082549260ff84161515938484526020840161ffff809260081c16815260606002600185015494868801958652015495019485528351958652511660208501525190830152516060820152f35b600435906001600160a01b03821682036108c457565b600080fd5b6024359061ffff821682036108c457565b6000546001600160a01b031633036108ee57565b606460405162461bcd60e51b815260206004820152602060248201527f4f776e61626c653a2063616c6c6572206973206e6f7420746865206f776e65726044820152fd5b1561093957565b60405162461bcd60e51b8152602060048201526015602482015274496e76616c6964436f6d6d697373696f6e5261746560581b6044820152606490fd5b600260015414610987576002600155565b60405162461bcd60e51b815260206004820152601f60248201527f5265656e7472616e637947756172643a207265656e7472616e742063616c6c006044820152606490fd5b604051906080820182811067ffffffffffffffff8211176109ec57604052565b634e487b7160e01b600052604160045260246000fdfea264697066735822122062361ee4a1869d9357c5f65511ead319054b8bec07a97738b4283510c285efae64736f6c63430008120033",
  "linkReferences": {},
  "deployedLinkReferences": {}
}