{
  "_format": "hh-sol-artifact-1",
  "contractName": "CryptoDrawMock",
  "sourceName": "contracts/mocks/Mocks.sol",
  "abi": [
    {
      "anonymous": false,
      "inputs": [
        {
          "indexed": true,
          "internalType": "address",
          "name": "buyer",
          "type": "address"
        },
        {
          "indexed": true,
          "internalType": "uint256",
          "name": "ticketId",
          "type": "uint256"
        },
        {
          "indexed": false,
          "internalType": "uint256",
          "name": "gameType",
          "type": "uint256"
        },
        {
          "indexed": false,
          "internalType": "uint256",
          "name": "rounds",
          "type": "uint256"
        }
      ],
      "name": "TicketPurchased",
      "type": "event"
    },
    {
      "inputs": [
        {
          "internalType": "address",
          "name": "",
          "type": "address"
        }
      ],
      "name": "agentCommissions",
      "outputs": [
        {
          "internalType": "uint256",
          "name": "",
          "type": "uint256"
        }
      ],
      "stateMutability": "view",
      "type": "function"
    },
    {
      "inputs": [
        {
          "internalType": "uint256",
          "name": "gameType",
          "type": "uint256"
        },
        {
          "internalType": "uint256[]",
          "name": "numbers",
          "type": "uint256[]"
        },
        {
          "internalType": "uint256",
          "name": "rounds",
          "type": "uint256"
        },
        {
          "internalType": "address",
          "name": "agent",
          "type": "address"
        }
      ],
      "name": "buyTicketWithAgent",
      "outputs": [
        {
          "internalType": "uint256",
          "name": "",
          "type": "uint256"
        }
      ],
      "stateMutability": "payable",
      "type": "function"
    },
    {
      "inputs": [
        {
          "internalType": "uint256",
          "name": "",
          "type": "uint256"
        }
      ],
      "name": "getTicketPrice",
      "outputs": [
        {
          "internalType": "uint256",
          "name": "",
          "type": "uint256"
        }
      ],
      "stateMutability": "view",
      "type": "function"
    },
    {
      "inputs": [
        {
          "internalType": "uint256",
          "name": "price",
          "type": "uint256"
        }
      ],
      "name": "setTicketPrice",
      "outputs": [],
      "stateMutability": "nonpayable",
      "type": "function"
    },
    {
      "inputs": [],
      "name": "withdrawCommission",
      "outputs": [],
      "stateMutability": "nonpayable",
      "type": "function"
    }
  ],
  "bytecode": "0x6080806040523461002657671bc16d674ec800006000556001805561030e908161002c8239f35b600080fdfe608060408181526004918236101561001657600080fd5b600092833560e01c91826315981650146102bf5782633e25e8371461023e575081634490228b14610204578163473d1a4f1461007c575063f06fc9611461005c57600080fd5b3461007857602036600319011261007857602091549051908152f35b5080fd5b91905060803660031901126102005760249167ffffffffffffffff83358181116101fc57366023820112156101fc57808301359182116101fc578490369260051b0101116101f857604435936064356001600160a01b03811691908290036101f5578054868102908082048814901517156101e35734106101aa57600154946000198614610199576001860160015560053402923484046005143415171561018757825260026020528482209160648354940484018094116101775750509484929160209655835191358252858201527f96541f70da731142b18e96f1def4d2a7733deb7d784723106d52c1d906d4c67a833392a351908152f35b634e487b7160e01b815260118552fd5b50634e487b7160e01b82526011845290fd5b634e487b7160e01b82526011845290fd5b835162461bcd60e51b815260208185015260148187015273125b9cdd59999a58da595b9d081c185e5b595b9d60621b6044820152606490fd5b634e487b7160e01b8252601184528582fd5b80fd5b8380fd5b8580fd5b8280fd5b90503461020057602036600319011261020057356001600160a01b0381169081900361020057828291602094526002845220549051908152f35b909150346101f857836003193601126101f85733845260026020528284205491821561028e5750508280808093338252600260205281868120553382f115610284575080f35b51903d90823e3d90fd5b62461bcd60e51b8252602090820152600d60248201526c27379031b7b6b6b4b9b9b4b7b760991b6044820152606490fd5b8482346100785760203660031901126100785735815580f3fea264697066735822122052257f567599313dfa252af46e6a07139b81103d56d11183ed09824ee57ac83764736f6c63430008120033",
  "linkReferences": {},
  "deployedLinkReferences": {}
}