{
  "_format": "hh-sol-artifact-1",
  "contractName": "GameLibraryWrapper",
  "sourceName": "contracts/mocks/Mocks.sol",
  "abi": [
    {
      "inputs": [],
      "name": "InvalidNumber",
      "type": "error"
    },
    {
      "inputs": [],
      "name": "InvalidPackedData",
      "type": "error"
    },
    {
      "inputs": [
        {
          "internalType": "uint32",
          "name": "packed1",
          "type": "uint32"
        },
        {
          "internalType": "uint32",
          "name": "packed2",
          "type": "uint32"
        }
      ],
      "name": "countEasyLottoMatches",
      "outputs": [
        {
          "internalType": "uint8",
          "name": "count",
          "type": "uint8"
        }
      ],
      "stateMutability": "pure",
      "type": "function"
    },
    {
      "inputs": [
        {
          "internalType": "uint32",
          "name": "packed1",
          "type": "uint32"
        },
        {
          "internalType": "uint32",
          "name": "packed2",
          "type": "uint32"
        }
      ],
      "name": "countSuperSevenMatches",
      "outputs": [
        {
          "internalType": "uint8",
          "name": "count",
          "type": "uint8"
        }
      ],
      "stateMutability": "pure",
      "type": "function"
    },
    {
      "inputs": [
        {
          "internalType": "uint8[]",
          "name": "numbers",
          "type": "uint8[]"
        }
      ],
      "name": "packEasyLottoNumbers",
      "outputs": [
        {
          "internalType": "uint32",
          "name": "packed",
          "type": "uint32"
        }
      ],
      "stateMutability": "pure",
      "type": "function"
    },
    {
      "inputs": [
        {
          "internalType": "uint8[]",
          "name": "columns",
          "type": "uint8[]"
        }
      ],
      "name": "packSuperSevenNumbers",
      "outputs": [
        {
          "internalType": "uint32",
          "name": "packed",
          "type": "uint32"
        }
      ],
      "stateMutability": "pure",
      "type": "function"
    },
    {
      "inputs": [
        {
          "internalType": "uint32",
          "name": "packed",
          "type": "uint32"
        }
      ],
      "name": "unpackEasyLottoNumbers",
      "outputs": [
        {
          "internalType": "uint8[]",
          "name": "numbers",
          "type": "uint8[]"
        }
      ],
      "stateMutability": "pure",
      "type": "function"
    },
    {
      "inputs": [
        {
          "internalType": "uint32",
          "name": "packed",
          "type": "uint32"
        }
      ],
      "name": "unpackSuperSevenNumbers",
      "outputs": [
        {
          "internalType": "uint8[]",
          "name": "columns",
          "type": "uint8[]"
        }
      ],
      "stateMutability": "pure",
      "type": "function"
    },
    {
      "inputs": [
        {
          "internalType": "uint8[]",
          "name": "numbers",
          "type": "uint8[]"
        }
      ],
      "name": "validateEasyLottoNumbers",
      "outputs": [
        {
          "internalType": "bool",
          "name": "valid",
          "type": "bool"
        }
      ],
      "stateMutability": "pure",
      "type": "function"
    },
    {
      "inputs": [
        {
          "internalType": "uint8[]",
          "name": "columns",
          "type": "uint8[]"
        }
      ],
      "name": "validateSuperSevenNumbers",
      "outputs": [
        {
          "internalType": "bool",
          "name": "valid",
          "type": "bool"
        }
      ],
      "stateMutability": "pure",
      "type": "function"
    }
  ],
  "bytecode": "0x60808060405234610016576107c2908161001c8239f35b600080fdfe60406080815260048036101561001457600080fd5b600090813560e01c90816332233bb91461045e578163649160ca1461031b5781637eacac6c1461024a578163827c6b69146101ca5781638a7c4a71146101af578163b733764e14610187578163d61c8bd01461010c575063e7ff4e7e1461007a57600080fd5b346101095781600319360112610109576100926104d2565b9061009b6104ea565b63ffffffff9283169216815b60ff600781831610156100fc57600f838187846100c387610777565b161c16926100d085610777565b161c16146100e7575b6100e290610715565b6100a7565b916100f46100e291610715565b9290506100d9565b60208460ff885191168152f35b80fd5b8383346101095761011c3661058f565b9261012684610670565b156101795750805b8351821015610169576101639063ffffffff600160ff61015981610152888b610633565b511661065d565b161b16179161060e565b9061012e565b60209063ffffffff845191168152f35b82516374cbd35f60e01b8152fd5b8284346101ab576020906101a261019d3661058f565b610726565b90519015158152f35b5080fd5b8284346101ab576020906101a26101c53661058f565b610670565b91905034610109576101db3661058f565b916101e583610726565b1561023c5750805b60ff808316600781101561022c5781610226939261021063ffffffff9388610633565b51169061021c86610777565b161b161791610715565b906101ed565b60208363ffffffff885191168152f35b83516374cbd35f60e01b8152fd5b8284346101ab5760203660031901126101ab576102656104d2565b91815190610100820182811067ffffffffffffffff82111761030857839492945263ffffffff60079182865260e03660208801379216915b60ff808216838110156102f757906102d2600992600f87846102be88610777565b161c166102cb828b610633565b5288610633565b5116116102e7576102e290610715565b61029d565b83516338bfed7360e11b81528690fd5b85518061030489826104fd565b0390f35b634e487b7160e01b825260418652602482fd5b8391503461045a57602036600319011261045a576103376104d2565b928091815b60ff8116601981101561037d57600163ffffffff911b871616610368575b61036390610715565b61033c565b9261037561036391610715565b93905061035a565b505092918460ff80921690600f82108015610450575b610440576103a86103a383610577565b61053b565b918083526103b8601f1991610577565b013660208401378390845b84811660198110156104335760019063ffffffff82821b8516166103f2575b50506103ed90610715565b6103c3565b0185811161042057906103ed91866104158161040d88610715565b971688610633565b9116905290896103e2565b634e487b7160e01b875260118952602487fd5b87518061030487826104fd565b84516338bfed7360e11b81528690fd5b5060148211610393565b8280fd5b5050346101095781600319360112610109576104786104d2565b6104806104ea565b1690805b60ff811660198110156104c557600163ffffffff911b8416166104b0575b6104ab90610715565b610484565b906104bd6104ab91610715565b9190506104a2565b60208360ff875191168152f35b6004359063ffffffff821682036104e557565b600080fd5b6024359063ffffffff821682036104e557565b6020908160408183019282815285518094520193019160005b828110610524575050505090565b835160ff1685529381019392810192600101610516565b6040519190601f01601f1916820167ffffffffffffffff81118382101761056157604052565b634e487b7160e01b600052604160045260246000fd5b67ffffffffffffffff81116105615760051b60200190565b6020806003198301126104e5576004359167ffffffffffffffff83116104e557806023840112156104e55782600401356105cb6103a382610577565b9360248486848152019260051b8201019283116104e557602401905b8282106105f5575050505090565b813560ff811681036104e55781529083019083016105e7565b600019811461061d5760010190565b634e487b7160e01b600052601160045260246000fd5b80518210156106475760209160051b010190565b634e487b7160e01b600052603260045260246000fd5b60ff6000199116019060ff821161061d57565b8051600f811090811561070a575b50610704576000805b82518210156106fc5760ff8061069d8486610633565b51169060019182811080156106f2575b6106e7576106ba9061065d565b161b9063ffffffff80838316166106dd576106d79216179161060e565b90610687565b5050505050600090565b505050505050600090565b50601981116106ad565b505050600190565b50600090565b60149150113861067e565b60ff1660ff811461061d5760010190565b6007908181510361077057600090815b8381106107465750505050600190565b600960ff6107548385610633565b511611610769576107649061060e565b610736565b5050905090565b5050600090565b60021b906103fc60fc83169216820361061d5756fea264697066735822122079513812b3d727094ef7a4c55c0248cf8c55c14db4462a803672e36ee6e8479a64736f6c63430008120033",
  "linkReferences": {},
  "deployedLinkReferences": {}
}