{
  "_format": "hh-sol-artifact-1",
  "contractName": "PriceOracleMock",
  "sourceName": "contracts/mocks/Mocks.sol",
  "abi": [
    {
      "inputs": [],
      "name": "decimals",
      "outputs": [
        {
          "internalType": "uint8",
          "name": "",
          "type": "uint8"
        }
      ],
      "stateMutability": "view",
      "type": "function"
    },
    {
      "inputs": [],
      "name": "latestRoundData",
      "outputs": [
        {
          "internalType": "uint80",
          "name": "roundId",
          "type": "uint80"
        },
        {
          "internalType": "int256",
          "name": "answer",
          "type": "int256"
        },
        {
          "internalType": "uint256",
          "name": "startedAt",
          "type": "uint256"
        },
        {
          "internalType": "uint256",
          "name": "updatedAt",
          "type": "uint256"
        },
        {
          "internalType": "uint80",
          "name": "answeredInRound",
          "type": "uint80"
        }
      ],
      "stateMutability": "view",
      "type": "function"
    },
    {
      "inputs": [
        {
          "internalType": "int256",
          "name": "price",
          "type": "int256"
        }
      ],
      "name": "setPrice",
      "outputs": [],
      "stateMutability": "nonpayable",
      "type": "function"
    }
  ],
  "bytecode": "0x6080806040523461002b57642e90edd000600055600860ff19600154161760015560e490816100318239f35b600080fdfe6080806040526004361015601257600080fd5b600090813560e01c908163313ce56714608d57508063f7a308061460755763feaf968c14603e57600080fd5b346072578060031936011260725760a090546040519060018252602082015242604082015242606082015260016080820152f35b80fd5b50346072576020366003190112607257600435815580f35b90503460aa578160031936011260aa5760209060ff600154168152f35b5080fdfea26469706673582212208f001eb9ad58ad016aa199b7109279572b0516762b4a3de7ac45124d179531f464736f6c63430008120033",
  "linkReferences": {},
  "deployedLinkReferences": {}
}